{
  "contractName": "AppearanceAvatar",
  "abi": [
    {
      "inputs": [
        {
          "internalType": "address",
          "name": "trustedForwarder",
          "type": "address"
        }
      ],
      "stateMutability": "nonpayable",
      "type": "constructor"
    },
    {
      "anonymous": false,
      "inputs": [
        {
          "indexed": true,
          "internalType": "address",
          "name": "owner",
          "type": "address"
        },
        {
          "indexed": true,
          "internalType": "address",
          "name": "approved",
          "type": "address"
        },
        {
          "indexed": true,
          "internalType": "uint256",
          "name": "tokenId",
          "type": "uint256"
        }
      ],
      "name": "Approval",
      "type": "event"
    },
    {
      "anonymous": false,
      "inputs": [
        {
          "indexed": true,
          "internalType": "address",
          "name": "owner",
          "type": "address"
        },
        {
          "indexed": true,
          "internalType": "address",
          "name": "operator",
          "type": "address"
        },
        {
          "indexed": false,
          "internalType": "bool",
          "name": "approved",
          "type": "bool"
        }
      ],
      "name": "ApprovalForAll",
      "type": "event"
    },
    {
      "anonymous": false,
      "inputs": [
        {
          "indexed": true,
          "internalType": "address",
          "name": "previousOwner",
          "type": "address"
        },
        {
          "indexed": true,
          "internalType": "address",
          "name": "newOwner",
          "type": "address"
        }
      ],
      "name": "OwnershipTransferred",
      "type": "event"
    },
    {
      "anonymous": false,
      "inputs": [
        {
          "indexed": true,
          "internalType": "uint256",
          "name": "tokenId",
          "type": "uint256"
        },
        {
          "indexed": false,
          "internalType": "string",
          "name": "uri",
          "type": "string"
        }
      ],
      "name": "TokenURIUpdated",
      "type": "event"
    },
    {
      "anonymous": false,
      "inputs": [
        {
          "indexed": true,
          "internalType": "address",
          "name": "from",
          "type": "address"
        },
        {
          "indexed": true,
          "internalType": "address",
          "name": "to",
          "type": "address"
        },
        {
          "indexed": true,
          "internalType": "uint256",
          "name": "tokenId",
          "type": "uint256"
        }
      ],
      "name": "Transfer",
      "type": "event"
    },
    {
      "inputs": [
        {
          "internalType": "address",
          "name": "to",
          "type": "address"
        },
        {
          "internalType": "uint256",
          "name": "tokenId",
          "type": "uint256"
        }
      ],
      "name": "approve",
      "outputs": [],
      "stateMutability": "nonpayable",
      "type": "function"
    },
    {
      "inputs": [
        {
          "internalType": "address",
          "name": "owner",
          "type": "address"
        }
      ],
      "name": "balanceOf",
      "outputs": [
        {
          "internalType": "uint256",
          "name": "",
          "type": "uint256"
        }
      ],
      "stateMutability": "view",
      "type": "function"
    },
    {
      "inputs": [
        {
          "internalType": "uint256",
          "name": "tokenId",
          "type": "uint256"
        }
      ],
      "name": "burn",
      "outputs": [],
      "stateMutability": "nonpayable",
      "type": "function"
    },
    {
      "inputs": [],
      "name": "createAvatar",
      "outputs": [],
      "stateMutability": "nonpayable",
      "type": "function"
    },
    {
      "inputs": [
        {
          "internalType": "address",
          "name": "to",
          "type": "address"
        }
      ],
      "name": "createAvatarTo",
      "outputs": [],
      "stateMutability": "nonpayable",
      "type": "function"
    },
    {
      "inputs": [
        {
          "internalType": "uint256",
          "name": "tokenId",
          "type": "uint256"
        }
      ],
      "name": "getApproved",
      "outputs": [
        {
          "internalType": "address",
          "name": "",
          "type": "address"
        }
      ],
      "stateMutability": "view",
      "type": "function"
    },
    {
      "inputs": [],
      "name": "getCurrTokenId",
      "outputs": [
        {
          "internalType": "uint256",
          "name": "",
          "type": "uint256"
        }
      ],
      "stateMutability": "view",
      "type": "function"
    },
    {
      "inputs": [
        {
          "internalType": "address",
          "name": "owner",
          "type": "address"
        },
        {
          "internalType": "address",
          "name": "operator",
          "type": "address"
        }
      ],
      "name": "isApprovedForAll",
      "outputs": [
        {
          "internalType": "bool",
          "name": "",
          "type": "bool"
        }
      ],
      "stateMutability": "view",
      "type": "function"
    },
    {
      "inputs": [
        {
          "internalType": "address",
          "name": "forwarder",
          "type": "address"
        }
      ],
      "name": "isTrustedForwarder",
      "outputs": [
        {
          "internalType": "bool",
          "name": "",
          "type": "bool"
        }
      ],
      "stateMutability": "view",
      "type": "function"
    },
    {
      "inputs": [],
      "name": "name",
      "outputs": [
        {
          "internalType": "string",
          "name": "",
          "type": "string"
        }
      ],
      "stateMutability": "view",
      "type": "function"
    },
    {
      "inputs": [],
      "name": "owner",
      "outputs": [
        {
          "internalType": "address",
          "name": "",
          "type": "address"
        }
      ],
      "stateMutability": "view",
      "type": "function"
    },
    {
      "inputs": [
        {
          "internalType": "uint256",
          "name": "tokenId",
          "type": "uint256"
        }
      ],
      "name": "ownerOf",
      "outputs": [
        {
          "internalType": "address",
          "name": "",
          "type": "address"
        }
      ],
      "stateMutability": "view",
      "type": "function"
    },
    {
      "inputs": [],
      "name": "renounceOwnership",
      "outputs": [],
      "stateMutability": "nonpayable",
      "type": "function"
    },
    {
      "inputs": [],
      "name": "safeMint",
      "outputs": [],
      "stateMutability": "nonpayable",
      "type": "function"
    },
    {
      "inputs": [
        {
          "internalType": "address",
          "name": "from",
          "type": "address"
        },
        {
          "internalType": "address",
          "name": "to",
          "type": "address"
        },
        {
          "internalType": "uint256",
          "name": "tokenId",
          "type": "uint256"
        }
      ],
      "name": "safeTransferFrom",
      "outputs": [],
      "stateMutability": "nonpayable",
      "type": "function"
    },
    {
      "inputs": [
        {
          "internalType": "address",
          "name": "from",
          "type": "address"
        },
        {
          "internalType": "address",
          "name": "to",
          "type": "address"
        },
        {
          "internalType": "uint256",
          "name": "tokenId",
          "type": "uint256"
        },
        {
          "internalType": "bytes",
          "name": "_data",
          "type": "bytes"
        }
      ],
      "name": "safeTransferFrom",
      "outputs": [],
      "stateMutability": "nonpayable",
      "type": "function"
    },
    {
      "inputs": [
        {
          "internalType": "address",
          "name": "operator",
          "type": "address"
        },
        {
          "internalType": "bool",
          "name": "approved",
          "type": "bool"
        }
      ],
      "name": "setApprovalForAll",
      "outputs": [],
      "stateMutability": "nonpayable",
      "type": "function"
    },
    {
      "inputs": [
        {
          "internalType": "uint256",
          "name": "tokenId",
          "type": "uint256"
        },
        {
          "internalType": "string",
          "name": "uri",
          "type": "string"
        }
      ],
      "name": "setTokenURI",
      "outputs": [],
      "stateMutability": "nonpayable",
      "type": "function"
    },
    {
      "inputs": [
        {
          "internalType": "bytes4",
          "name": "interfaceId",
          "type": "bytes4"
        }
      ],
      "name": "supportsInterface",
      "outputs": [
        {
          "internalType": "bool",
          "name": "",
          "type": "bool"
        }
      ],
      "stateMutability": "view",
      "type": "function"
    },
    {
      "inputs": [],
      "name": "symbol",
      "outputs": [
        {
          "internalType": "string",
          "name": "",
          "type": "string"
        }
      ],
      "stateMutability": "view",
      "type": "function"
    },
    {
      "inputs": [
        {
          "internalType": "uint256",
          "name": "tokenId",
          "type": "uint256"
        }
      ],
      "name": "tokenURI",
      "outputs": [
        {
          "internalType": "string",
          "name": "",
          "type": "string"
        }
      ],
      "stateMutability": "view",
      "type": "function"
    },
    {
      "inputs": [
        {
          "internalType": "address",
          "name": "from",
          "type": "address"
        },
        {
          "internalType": "address",
          "name": "to",
          "type": "address"
        },
        {
          "internalType": "uint256",
          "name": "tokenId",
          "type": "uint256"
        }
      ],
      "name": "transferFrom",
      "outputs": [],
      "stateMutability": "nonpayable",
      "type": "function"
    },
    {
      "inputs": [
        {
          "internalType": "address",
          "name": "newOwner",
          "type": "address"
        }
      ],
      "name": "transferOwnership",
      "outputs": [],
      "stateMutability": "nonpayable",
      "type": "function"
    }
  ],
  "bytecode": "0x608060405260006008553480156200001657600080fd5b50604051620039c9380380620039c983398181016040528101906200003c919062000383565b604051806060016040528060218152602001620039a8602191396040518060400160405280600381526020017f474141000000000000000000000000000000000000000000000000000000000081525082828282806000806101000a81548173ffffffffffffffffffffffffffffffffffffffff021916908373ffffffffffffffffffffffffffffffffffffffff160217905550508160019080519060200190620000e9929190620002bc565b50806002908051906020019062000102929190620002bc565b505050505050620001286200011c6200012f60201b60201c565b6200014b60201b60201c565b5062000462565b6000620001466200021160201b62000f091760201c565b905090565b6000600960009054906101000a900473ffffffffffffffffffffffffffffffffffffffff16905081600960006101000a81548173ffffffffffffffffffffffffffffffffffffffff021916908373ffffffffffffffffffffffffffffffffffffffff1602179055508173ffffffffffffffffffffffffffffffffffffffff168173ffffffffffffffffffffffffffffffffffffffff167f8be0079c531659141344cd1fd0a4f28419497f9722a3daafe3b4186f6b6457e060405160405180910390a35050565b600062000224336200025b60201b60201c565b156200023a57601436033560601c905062000257565b6200024f620002b460201b62000f3b1760201c565b905062000258565b5b90565b60008060009054906101000a900473ffffffffffffffffffffffffffffffffffffffff1673ffffffffffffffffffffffffffffffffffffffff168273ffffffffffffffffffffffffffffffffffffffff16149050919050565b600033905090565b828054620002ca90620003e3565b90600052602060002090601f016020900481019282620002ee57600085556200033a565b82601f106200030957805160ff19168380011785556200033a565b828001600101855582156200033a579182015b82811115620003395782518255916020019190600101906200031c565b5b5090506200034991906200034d565b5090565b5b80821115620003685760008160009055506001016200034e565b5090565b6000815190506200037d8162000448565b92915050565b6000602082840312156200039657600080fd5b6000620003a6848285016200036c565b91505092915050565b6000620003bc82620003c3565b9050919050565b600073ffffffffffffffffffffffffffffffffffffffff82169050919050565b60006002820490506001821680620003fc57607f821691505b6020821081141562000413576200041262000419565b5b50919050565b7f4e487b7100000000000000000000000000000000000000000000000000000000600052602260045260246000fd5b6200045381620003af565b81146200045f57600080fd5b50565b61353680620004726000396000f3fe608060405234801561001057600080fd5b506004361061014d5760003560e01c80636352211e116100c3578063a22cb4651161007c578063a22cb46514610364578063b88d4fde14610380578063c87b56dd1461039c578063e985e9c5146103cc578063f2fde38b146103fc578063f7daec35146104185761014d565b80636352211e146102b45780636871ee40146102e457806370a08231146102ee578063715018a61461031e5780638da5cb5b1461032857806395d89b41146103465761014d565b806323b872dd1161011557806323b872dd1461020857806342842e0e1461022457806342966c6814610240578063572b6c051461025c5780635938dcd31461028c5780635e5cd13a146102aa5761014d565b806301ffc9a71461015257806306fdde0314610182578063081812fc146101a0578063095ea7b3146101d0578063162094c4146101ec575b600080fd5b61016c6004803603810190610167919061245b565b610434565b6040516101799190612de5565b60405180910390f35b61018a610516565b6040516101979190612e00565b60405180910390f35b6101ba60048036038101906101b591906124ad565b6105a8565b6040516101c79190612d7e565b60405180910390f35b6101ea60048036038101906101e5919061241f565b61062d565b005b610206600480360381019061020191906124d6565b610745565b005b610222600480360381019061021d9190612319565b6107a3565b005b61023e60048036038101906102399190612319565b610803565b005b61025a600480360381019061025591906124ad565b610823565b005b610276600480360381019061027191906122b4565b61082f565b6040516102839190612de5565b60405180910390f35b610294610888565b6040516102a191906130a2565b60405180910390f35b6102b2610892565b005b6102ce60048036038101906102c991906124ad565b6108a4565b6040516102db9190612d7e565b60405180910390f35b6102ec610956565b005b610308600480360381019061030391906122b4565b610970565b60405161031591906130a2565b60405180910390f35b610326610a28565b005b610330610ab0565b60405161033d9190612d7e565b60405180910390f35b61034e610ada565b60405161035b9190612e00565b60405180910390f35b61037e600480360381019061037991906123e3565b610b6c565b005b61039a60048036038101906103959190612368565b610ced565b005b6103b660048036038101906103b191906124ad565b610d4f565b6040516103c39190612e00565b60405180910390f35b6103e660048036038101906103e191906122dd565b610d61565b6040516103f39190612de5565b60405180910390f35b610416600480360381019061041191906122b4565b610df5565b005b610432600480360381019061042d91906122b4565b610eed565b005b60007f80ac58cd000000000000000000000000000000000000000000000000000000007bffffffffffffffffffffffffffffffffffffffffffffffffffffffff1916827bffffffffffffffffffffffffffffffffffffffffffffffffffffffff191614806104ff57507f5b5e139f000000000000000000000000000000000000000000000000000000007bffffffffffffffffffffffffffffffffffffffffffffffffffffffff1916827bffffffffffffffffffffffffffffffffffffffffffffffffffffffff1916145b8061050f575061050e82610f43565b5b9050919050565b60606001805461052590613302565b80601f016020809104026020016040519081016040528092919081815260200182805461055190613302565b801561059e5780601f106105735761010080835404028352916020019161059e565b820191906000526020600020905b81548152906001019060200180831161058157829003601f168201915b5050505050905090565b60006105b382610fad565b6105f2576040517f08c379a00000000000000000000000000000000000000000000000000000000081526004016105e990612fc2565b60405180910390fd5b6005600083815260200190815260200160002060009054906101000a900473ffffffffffffffffffffffffffffffffffffffff169050919050565b6000610638826108a4565b90508073ffffffffffffffffffffffffffffffffffffffff168373ffffffffffffffffffffffffffffffffffffffff1614156106a9576040517f08c379a00000000000000000000000000000000000000000000000000000000081526004016106a090613042565b60405180910390fd5b8073ffffffffffffffffffffffffffffffffffffffff166106c8611019565b73ffffffffffffffffffffffffffffffffffffffff1614806106f757506106f6816106f1611019565b610d61565b5b610736576040517f08c379a000000000000000000000000000000000000000000000000000000000815260040161072d90612f02565b60405180910390fd5b6107408383611028565b505050565b610756610750611019565b836110e1565b610795576040517f08c379a000000000000000000000000000000000000000000000000000000000815260040161078c90612ee2565b60405180910390fd5b61079f82826111bf565b5050565b6107b46107ae611019565b826110e1565b6107f3576040517f08c379a00000000000000000000000000000000000000000000000000000000081526004016107ea90613062565b60405180910390fd5b6107fe838383611205565b505050565b61081e83838360405180602001604052806000815250610ced565b505050565b61082c81611461565b50565b60008060009054906101000a900473ffffffffffffffffffffffffffffffffffffffff1673ffffffffffffffffffffffffffffffffffffffff168273ffffffffffffffffffffffffffffffffffffffff16149050919050565b6000600854905090565b6108a261089d611019565b610eed565b565b6000806003600084815260200190815260200160002060009054906101000a900473ffffffffffffffffffffffffffffffffffffffff169050600073ffffffffffffffffffffffffffffffffffffffff168173ffffffffffffffffffffffffffffffffffffffff16141561094d576040517f08c379a000000000000000000000000000000000000000000000000000000000815260040161094490612f42565b60405180910390fd5b80915050919050565b61096e604051806020016040528060008152506114bd565b565b60008073ffffffffffffffffffffffffffffffffffffffff168273ffffffffffffffffffffffffffffffffffffffff1614156109e1576040517f08c379a00000000000000000000000000000000000000000000000000000000081526004016109d890612f22565b60405180910390fd5b600460008373ffffffffffffffffffffffffffffffffffffffff1673ffffffffffffffffffffffffffffffffffffffff168152602001908152602001600020549050919050565b610a30611019565b73ffffffffffffffffffffffffffffffffffffffff16610a4e610ab0565b73ffffffffffffffffffffffffffffffffffffffff1614610aa4576040517f08c379a0000000000000000000000000000000000000000000000000000000008152600401610a9b90612fe2565b60405180910390fd5b610aae60006114e7565b565b6000600960009054906101000a900473ffffffffffffffffffffffffffffffffffffffff16905090565b606060028054610ae990613302565b80601f0160208091040260200160405190810160405280929190818152602001828054610b1590613302565b8015610b625780601f10610b3757610100808354040283529160200191610b62565b820191906000526020600020905b815481529060010190602001808311610b4557829003601f168201915b5050505050905090565b610b74611019565b73ffffffffffffffffffffffffffffffffffffffff168273ffffffffffffffffffffffffffffffffffffffff161415610be2576040517f08c379a0000000000000000000000000000000000000000000000000000000008152600401610bd990612ea2565b60405180910390fd5b8060066000610bef611019565b73ffffffffffffffffffffffffffffffffffffffff1673ffffffffffffffffffffffffffffffffffffffff16815260200190815260200160002060008473ffffffffffffffffffffffffffffffffffffffff1673ffffffffffffffffffffffffffffffffffffffff16815260200190815260200160002060006101000a81548160ff0219169083151502179055508173ffffffffffffffffffffffffffffffffffffffff16610c9c611019565b73ffffffffffffffffffffffffffffffffffffffff167f17307eab39ab6107e8899845ad3d59bd9653f200f220920489ca2b5937696c3183604051610ce19190612de5565b60405180910390a35050565b610cfe610cf8611019565b836110e1565b610d3d576040517f08c379a0000000000000000000000000000000000000000000000000000000008152600401610d3490613062565b60405180910390fd5b610d49848484846115ad565b50505050565b6060610d5a82611609565b9050919050565b6000600660008473ffffffffffffffffffffffffffffffffffffffff1673ffffffffffffffffffffffffffffffffffffffff16815260200190815260200160002060008373ffffffffffffffffffffffffffffffffffffffff1673ffffffffffffffffffffffffffffffffffffffff16815260200190815260200160002060009054906101000a900460ff16905092915050565b610dfd611019565b73ffffffffffffffffffffffffffffffffffffffff16610e1b610ab0565b73ffffffffffffffffffffffffffffffffffffffff1614610e71576040517f08c379a0000000000000000000000000000000000000000000000000000000008152600401610e6890612fe2565b60405180910390fd5b600073ffffffffffffffffffffffffffffffffffffffff168173ffffffffffffffffffffffffffffffffffffffff161415610ee1576040517f08c379a0000000000000000000000000000000000000000000000000000000008152600401610ed890612e42565b60405180910390fd5b610eea816114e7565b50565b610f06816040518060200160405280600081525061175b565b50565b6000610f143361082f565b15610f2857601436033560601c9050610f37565b610f30610f3b565b9050610f38565b5b90565b600033905090565b60007f01ffc9a7000000000000000000000000000000000000000000000000000000007bffffffffffffffffffffffffffffffffffffffffffffffffffffffff1916827bffffffffffffffffffffffffffffffffffffffffffffffffffffffff1916149050919050565b60008073ffffffffffffffffffffffffffffffffffffffff166003600084815260200190815260200160002060009054906101000a900473ffffffffffffffffffffffffffffffffffffffff1673ffffffffffffffffffffffffffffffffffffffff1614159050919050565b6000611023610f09565b905090565b816005600083815260200190815260200160002060006101000a81548173ffffffffffffffffffffffffffffffffffffffff021916908373ffffffffffffffffffffffffffffffffffffffff160217905550808273ffffffffffffffffffffffffffffffffffffffff1661109b836108a4565b73ffffffffffffffffffffffffffffffffffffffff167f8c5be1e5ebec7d5bd14f71427d1e84f3dd0314c0f7b2291e5b200ac8c7c3b92560405160405180910390a45050565b60006110ec82610fad565b61112b576040517f08c379a000000000000000000000000000000000000000000000000000000000815260040161112290612ec2565b60405180910390fd5b6000611136836108a4565b90508073ffffffffffffffffffffffffffffffffffffffff168473ffffffffffffffffffffffffffffffffffffffff1614806111a557508373ffffffffffffffffffffffffffffffffffffffff1661118d846105a8565b73ffffffffffffffffffffffffffffffffffffffff16145b806111b657506111b58185610d61565b5b91505092915050565b6111c98282611791565b817f931f495b9a8e5d8e61946ea5d61e021f636cfe213a801f97589c18c152e408bd826040516111f99190612e00565b60405180910390a25050565b8273ffffffffffffffffffffffffffffffffffffffff16611225826108a4565b73ffffffffffffffffffffffffffffffffffffffff161461127b576040517f08c379a000000000000000000000000000000000000000000000000000000000815260040161127290613002565b60405180910390fd5b600073ffffffffffffffffffffffffffffffffffffffff168273ffffffffffffffffffffffffffffffffffffffff1614156112eb576040517f08c379a00000000000000000000000000000000000000000000000000000000081526004016112e290612e82565b60405180910390fd5b6112f6838383611805565b611301600082611028565b6001600460008573ffffffffffffffffffffffffffffffffffffffff1673ffffffffffffffffffffffffffffffffffffffff16815260200190815260200160002060008282546113519190613218565b925050819055506001600460008473ffffffffffffffffffffffffffffffffffffffff1673ffffffffffffffffffffffffffffffffffffffff16815260200190815260200160002060008282546113a89190613191565b92505081905550816003600083815260200190815260200160002060006101000a81548173ffffffffffffffffffffffffffffffffffffffff021916908373ffffffffffffffffffffffffffffffffffffffff160217905550808273ffffffffffffffffffffffffffffffffffffffff168473ffffffffffffffffffffffffffffffffffffffff167fddf252ad1be2c89b69c2b068fc378daa952ba7f163c4a11628f55a4df523b3ef60405160405180910390a4505050565b61147261146c611019565b826110e1565b6114b1576040517f08c379a00000000000000000000000000000000000000000000000000000000081526004016114a890613082565b60405180910390fd5b6114ba8161180a565b50565b60006114c7611816565b90506114d1611833565b6114e36114dc611019565b828461184d565b5050565b6000600960009054906101000a900473ffffffffffffffffffffffffffffffffffffffff16905081600960006101000a81548173ffffffffffffffffffffffffffffffffffffffff021916908373ffffffffffffffffffffffffffffffffffffffff1602179055508173ffffffffffffffffffffffffffffffffffffffff168173ffffffffffffffffffffffffffffffffffffffff167f8be0079c531659141344cd1fd0a4f28419497f9722a3daafe3b4186f6b6457e060405160405180910390a35050565b6115b8848484611205565b6115c4848484846118a8565b611603576040517f08c379a00000000000000000000000000000000000000000000000000000000081526004016115fa90612e22565b60405180910390fd5b50505050565b606061161482610fad565b611653576040517f08c379a000000000000000000000000000000000000000000000000000000000815260040161164a90612fa2565b60405180910390fd5b600060076000848152602001908152602001600020805461167390613302565b80601f016020809104026020016040519081016040528092919081815260200182805461169f90613302565b80156116ec5780601f106116c1576101008083540402835291602001916116ec565b820191906000526020600020905b8154815290600101906020018083116116cf57829003601f168201915b5050505050905060006116fd611a3f565b9050600081511415611713578192505050611756565b600082511115611748578082604051602001611730929190612d5a565b60405160208183030381529060405292505050611756565b61175184611a5f565b925050505b919050565b6000611765611816565b905061176f611833565b61177a83828461184d565b61178c8161178783611b06565b6111bf565b505050565b61179a82610fad565b6117d9576040517f08c379a00000000000000000000000000000000000000000000000000000000081526004016117d090612f62565b60405180910390fd5b80600760008481526020019081526020016000209080519060200190611800929190612098565b505050565b505050565b61181381611cb3565b50565b600061182e6001600854611d0690919063ffffffff16565b905090565b6008600081548092919061184690613334565b9190505550565b6118578383611d1c565b61186460008484846118a8565b6118a3576040517f08c379a000000000000000000000000000000000000000000000000000000000815260040161189a90612e22565b60405180910390fd5b505050565b60006118c98473ffffffffffffffffffffffffffffffffffffffff16611da6565b15611a32578373ffffffffffffffffffffffffffffffffffffffff1663150b7a026118f2611019565b8786866040518563ffffffff1660e01b81526004016119149493929190612d99565b602060405180830381600087803b15801561192e57600080fd5b505af192505050801561195f57506040513d601f19601f8201168201806040525081019061195c9190612484565b60015b6119e2573d806000811461198f576040519150601f19603f3d011682016040523d82523d6000602084013e611994565b606091505b506000815114156119da576040517f08c379a00000000000000000000000000000000000000000000000000000000081526004016119d190612e22565b60405180910390fd5b805181602001fd5b63150b7a0260e01b7bffffffffffffffffffffffffffffffffffffffffffffffffffffffff1916817bffffffffffffffffffffffffffffffffffffffffffffffffffffffff191614915050611a37565b600190505b949350505050565b60606040518060600160405280602981526020016134d860299139905090565b6060611a6a82610fad565b611aa9576040517f08c379a0000000000000000000000000000000000000000000000000000000008152600401611aa090613022565b60405180910390fd5b6000611ab3611a3f565b90506000815111611ad35760405180602001604052806000815250611afe565b80611add84611b06565b604051602001611aee929190612d5a565b6040516020818303038152906040525b915050919050565b60606000821415611b4e576040518060400160405280600181526020017f30000000000000000000000000000000000000000000000000000000000000008152509050611cae565b600082905060005b60008214611b80578080611b6990613334565b915050600a82611b7991906131e7565b9150611b56565b60008167ffffffffffffffff811115611bc2577f4e487b7100000000000000000000000000000000000000000000000000000000600052604160045260246000fd5b6040519080825280601f01601f191660200182016040528015611bf45781602001600182028036833780820191505090505b5090505b60008514611ca757600182611c0d9190613218565b9150600a85611c1c919061337d565b6030611c289190613191565b60f81b818381518110611c64577f4e487b7100000000000000000000000000000000000000000000000000000000600052603260045260246000fd5b60200101907effffffffffffffffffffffffffffffffffffffffffffffffffffffffffffff1916908160001a905350600a85611ca091906131e7565b9450611bf8565b8093505050505b919050565b611cbc81611db9565b6000600760008381526020019081526020016000208054611cdc90613302565b905014611d0357600760008281526020019081526020016000206000611d02919061211e565b5b50565b60008183611d149190613191565b905092915050565b611d24611019565b73ffffffffffffffffffffffffffffffffffffffff16611d42610ab0565b73ffffffffffffffffffffffffffffffffffffffff1614611d98576040517f08c379a0000000000000000000000000000000000000000000000000000000008152600401611d8f90612fe2565b60405180910390fd5b611da28282611eca565b5050565b600080823b905060008111915050919050565b6000611dc4826108a4565b9050611dd281600084611805565b611ddd600083611028565b6001600460008373ffffffffffffffffffffffffffffffffffffffff1673ffffffffffffffffffffffffffffffffffffffff1681526020019081526020016000206000828254611e2d9190613218565b925050819055506003600083815260200190815260200160002060006101000a81549073ffffffffffffffffffffffffffffffffffffffff021916905581600073ffffffffffffffffffffffffffffffffffffffff168273ffffffffffffffffffffffffffffffffffffffff167fddf252ad1be2c89b69c2b068fc378daa952ba7f163c4a11628f55a4df523b3ef60405160405180910390a45050565b600073ffffffffffffffffffffffffffffffffffffffff168273ffffffffffffffffffffffffffffffffffffffff161415611f3a576040517f08c379a0000000000000000000000000000000000000000000000000000000008152600401611f3190612f82565b60405180910390fd5b611f4381610fad565b15611f83576040517f08c379a0000000000000000000000000000000000000000000000000000000008152600401611f7a90612e62565b60405180910390fd5b611f8f60008383611805565b6001600460008473ffffffffffffffffffffffffffffffffffffffff1673ffffffffffffffffffffffffffffffffffffffff1681526020019081526020016000206000828254611fdf9190613191565b92505081905550816003600083815260200190815260200160002060006101000a81548173ffffffffffffffffffffffffffffffffffffffff021916908373ffffffffffffffffffffffffffffffffffffffff160217905550808273ffffffffffffffffffffffffffffffffffffffff16600073ffffffffffffffffffffffffffffffffffffffff167fddf252ad1be2c89b69c2b068fc378daa952ba7f163c4a11628f55a4df523b3ef60405160405180910390a45050565b8280546120a490613302565b90600052602060002090601f0160209004810192826120c6576000855561210d565b82601f106120df57805160ff191683800117855561210d565b8280016001018555821561210d579182015b8281111561210c5782518255916020019190600101906120f1565b5b50905061211a919061215e565b5090565b50805461212a90613302565b6000825580601f1061213c575061215b565b601f01602090049060005260206000209081019061215a919061215e565b5b50565b5b8082111561217757600081600090555060010161215f565b5090565b600061218e612189846130ee565b6130bd565b9050828152602081018484840111156121a657600080fd5b6121b18482856132c0565b509392505050565b60006121cc6121c78461311e565b6130bd565b9050828152602081018484840111156121e457600080fd5b6121ef8482856132c0565b509392505050565b6000813590506122068161347b565b92915050565b60008135905061221b81613492565b92915050565b600081359050612230816134a9565b92915050565b600081519050612245816134a9565b92915050565b600082601f83011261225c57600080fd5b813561226c84826020860161217b565b91505092915050565b600082601f83011261228657600080fd5b81356122968482602086016121b9565b91505092915050565b6000813590506122ae816134c0565b92915050565b6000602082840312156122c657600080fd5b60006122d4848285016121f7565b91505092915050565b600080604083850312156122f057600080fd5b60006122fe858286016121f7565b925050602061230f858286016121f7565b9150509250929050565b60008060006060848603121561232e57600080fd5b600061233c868287016121f7565b935050602061234d868287016121f7565b925050604061235e8682870161229f565b9150509250925092565b6000806000806080858703121561237e57600080fd5b600061238c878288016121f7565b945050602061239d878288016121f7565b93505060406123ae8782880161229f565b925050606085013567ffffffffffffffff8111156123cb57600080fd5b6123d78782880161224b565b91505092959194509250565b600080604083850312156123f657600080fd5b6000612404858286016121f7565b92505060206124158582860161220c565b9150509250929050565b6000806040838503121561243257600080fd5b6000612440858286016121f7565b92505060206124518582860161229f565b9150509250929050565b60006020828403121561246d57600080fd5b600061247b84828501612221565b91505092915050565b60006020828403121561249657600080fd5b60006124a484828501612236565b91505092915050565b6000602082840312156124bf57600080fd5b60006124cd8482850161229f565b91505092915050565b600080604083850312156124e957600080fd5b60006124f78582860161229f565b925050602083013567ffffffffffffffff81111561251457600080fd5b61252085828601612275565b9150509250929050565b6125338161324c565b82525050565b6125428161325e565b82525050565b60006125538261314e565b61255d8185613164565b935061256d8185602086016132cf565b6125768161346a565b840191505092915050565b600061258c82613159565b6125968185613175565b93506125a68185602086016132cf565b6125af8161346a565b840191505092915050565b60006125c582613159565b6125cf8185613186565b93506125df8185602086016132cf565b80840191505092915050565b60006125f8603283613175565b91507f4552433732313a207472616e7366657220746f206e6f6e20455243373231526560008301527f63656976657220696d706c656d656e74657200000000000000000000000000006020830152604082019050919050565b600061265e602683613175565b91507f4f776e61626c653a206e6577206f776e657220697320746865207a65726f206160008301527f64647265737300000000000000000000000000000000000000000000000000006020830152604082019050919050565b60006126c4601c83613175565b91507f4552433732313a20746f6b656e20616c7265616479206d696e746564000000006000830152602082019050919050565b6000612704602483613175565b91507f4552433732313a207472616e7366657220746f20746865207a65726f2061646460008301527f72657373000000000000000000000000000000000000000000000000000000006020830152604082019050919050565b600061276a601983613175565b91507f4552433732313a20617070726f766520746f2063616c6c6572000000000000006000830152602082019050919050565b60006127aa602c83613175565b91507f4552433732313a206f70657261746f7220717565727920666f72206e6f6e657860008301527f697374656e7420746f6b656e00000000000000000000000000000000000000006020830152604082019050919050565b6000612810602483613175565b91507f4176617461723a206e6f74206f776e6572206f72206e6f74206265206170707260008301527f6f766564000000000000000000000000000000000000000000000000000000006020830152604082019050919050565b6000612876603883613175565b91507f4552433732313a20617070726f76652063616c6c6572206973206e6f74206f7760008301527f6e6572206e6f7220617070726f76656420666f7220616c6c00000000000000006020830152604082019050919050565b60006128dc602a83613175565b91507f4552433732313a2062616c616e636520717565727920666f7220746865207a6560008301527f726f2061646472657373000000000000000000000000000000000000000000006020830152604082019050919050565b6000612942602983613175565b91507f4552433732313a206f776e657220717565727920666f72206e6f6e657869737460008301527f656e7420746f6b656e00000000000000000000000000000000000000000000006020830152604082019050919050565b60006129a8602e83613175565b91507f45524337323155524953746f726167653a2055524920736574206f66206e6f6e60008301527f6578697374656e7420746f6b656e0000000000000000000000000000000000006020830152604082019050919050565b6000612a0e602083613175565b91507f4552433732313a206d696e7420746f20746865207a65726f20616464726573736000830152602082019050919050565b6000612a4e603183613175565b91507f45524337323155524953746f726167653a2055524920717565727920666f722060008301527f6e6f6e6578697374656e7420746f6b656e0000000000000000000000000000006020830152604082019050919050565b6000612ab4602c83613175565b91507f4552433732313a20617070726f76656420717565727920666f72206e6f6e657860008301527f697374656e7420746f6b656e00000000000000000000000000000000000000006020830152604082019050919050565b6000612b1a602083613175565b91507f4f776e61626c653a2063616c6c6572206973206e6f7420746865206f776e65726000830152602082019050919050565b6000612b5a602983613175565b91507f4552433732313a207472616e73666572206f6620746f6b656e2074686174206960008301527f73206e6f74206f776e00000000000000000000000000000000000000000000006020830152604082019050919050565b6000612bc0602f83613175565b91507f4552433732314d657461646174613a2055524920717565727920666f72206e6f60008301527f6e6578697374656e7420746f6b656e00000000000000000000000000000000006020830152604082019050919050565b6000612c26602183613175565b91507f4552433732313a20617070726f76616c20746f2063757272656e74206f776e6560008301527f72000000000000000000000000000000000000000000000000000000000000006020830152604082019050919050565b6000612c8c603183613175565b91507f4552433732313a207472616e736665722063616c6c6572206973206e6f74206f60008301527f776e6572206e6f7220617070726f7665640000000000000000000000000000006020830152604082019050919050565b6000612cf2603083613175565b91507f4552433732314275726e61626c653a2063616c6c6572206973206e6f74206f7760008301527f6e6572206e6f7220617070726f766564000000000000000000000000000000006020830152604082019050919050565b612d54816132b6565b82525050565b6000612d6682856125ba565b9150612d7282846125ba565b91508190509392505050565b6000602082019050612d93600083018461252a565b92915050565b6000608082019050612dae600083018761252a565b612dbb602083018661252a565b612dc86040830185612d4b565b8181036060830152612dda8184612548565b905095945050505050565b6000602082019050612dfa6000830184612539565b92915050565b60006020820190508181036000830152612e1a8184612581565b905092915050565b60006020820190508181036000830152612e3b816125eb565b9050919050565b60006020820190508181036000830152612e5b81612651565b9050919050565b60006020820190508181036000830152612e7b816126b7565b9050919050565b60006020820190508181036000830152612e9b816126f7565b9050919050565b60006020820190508181036000830152612ebb8161275d565b9050919050565b60006020820190508181036000830152612edb8161279d565b9050919050565b60006020820190508181036000830152612efb81612803565b9050919050565b60006020820190508181036000830152612f1b81612869565b9050919050565b60006020820190508181036000830152612f3b816128cf565b9050919050565b60006020820190508181036000830152612f5b81612935565b9050919050565b60006020820190508181036000830152612f7b8161299b565b9050919050565b60006020820190508181036000830152612f9b81612a01565b9050919050565b60006020820190508181036000830152612fbb81612a41565b9050919050565b60006020820190508181036000830152612fdb81612aa7565b9050919050565b60006020820190508181036000830152612ffb81612b0d565b9050919050565b6000602082019050818103600083015261301b81612b4d565b9050919050565b6000602082019050818103600083015261303b81612bb3565b9050919050565b6000602082019050818103600083015261305b81612c19565b9050919050565b6000602082019050818103600083015261307b81612c7f565b9050919050565b6000602082019050818103600083015261309b81612ce5565b9050919050565b60006020820190506130b76000830184612d4b565b92915050565b6000604051905081810181811067ffffffffffffffff821117156130e4576130e361343b565b5b8060405250919050565b600067ffffffffffffffff8211156131095761310861343b565b5b601f19601f8301169050602081019050919050565b600067ffffffffffffffff8211156131395761313861343b565b5b601f19601f8301169050602081019050919050565b600081519050919050565b600081519050919050565b600082825260208201905092915050565b600082825260208201905092915050565b600081905092915050565b600061319c826132b6565b91506131a7836132b6565b9250827fffffffffffffffffffffffffffffffffffffffffffffffffffffffffffffffff038211156131dc576131db6133ae565b5b828201905092915050565b60006131f2826132b6565b91506131fd836132b6565b92508261320d5761320c6133dd565b5b828204905092915050565b6000613223826132b6565b915061322e836132b6565b925082821015613241576132406133ae565b5b828203905092915050565b600061325782613296565b9050919050565b60008115159050919050565b60007fffffffff0000000000000000000000000000000000000000000000000000000082169050919050565b600073ffffffffffffffffffffffffffffffffffffffff82169050919050565b6000819050919050565b82818337600083830152505050565b60005b838110156132ed5780820151818401526020810190506132d2565b838111156132fc576000848401525b50505050565b6000600282049050600182168061331a57607f821691505b6020821081141561332e5761332d61340c565b5b50919050565b600061333f826132b6565b91507fffffffffffffffffffffffffffffffffffffffffffffffffffffffffffffffff821415613372576133716133ae565b5b600182019050919050565b6000613388826132b6565b9150613393836132b6565b9250826133a3576133a26133dd565b5b828206905092915050565b7f4e487b7100000000000000000000000000000000000000000000000000000000600052601160045260246000fd5b7f4e487b7100000000000000000000000000000000000000000000000000000000600052601260045260246000fd5b7f4e487b7100000000000000000000000000000000000000000000000000000000600052602260045260246000fd5b7f4e487b7100000000000000000000000000000000000000000000000000000000600052604160045260246000fd5b6000601f19601f8301169050919050565b6134848161324c565b811461348f57600080fd5b50565b61349b8161325e565b81146134a657600080fd5b50565b6134b28161326a565b81146134bd57600080fd5b50565b6134c9816132b6565b81146134d457600080fd5b5056fe68747470733a2f2f736c6565702e676f6f646174612e696f2f6d657461646174612f6176617461722fa264697066735822122071e890d4f9c24a7f34d6210cf2d1f0987de319e162221fa4a7a2ca1b8b7fc66064736f6c63430008000033476f6f6420417070656172616e63652041766174617220436f6c6c656374696f6e",
  "immutableReferences": {},
  "source": "// SPDX-License-Identifier: GPL3.0\npragma solidity ^0.8.0;\n\nimport \"@openzeppelin/contracts/access/Ownable.sol\";\nimport \"./Avatar.sol\";\n\ncontract AppearanceAvatar is Avatar, Ownable {\n    constructor(address trustedForwarder)\n        Avatar(\"Good Appearance Avatar Collection\", \"GAA\", trustedForwarder) {}\n\n    function _baseURI() internal view virtual override(Avatar) returns (string memory) {\n        return \"https://sleep.goodata.io/metadata/avatar/\";\n    }\n\n    function _mint(address to, uint256 tokenId) internal onlyOwner override virtual {\n        super._mint(to, tokenId);\n    }\n\n    function _msgSender() internal view virtual override(Context, Avatar) returns (address) {\n        return ERC2771Context._msgSender();\n    }\n\n    function _msgData() internal view virtual override(Context, Avatar) returns (bytes calldata) {\n        return ERC2771Context._msgData();\n    }\n}",
  "sourcePath": "/Users/thestar/Development/go/src/work/goodata/good-sleep-contracts/contracts/AppearanceAvatar.sol",
  "compiler": {
    "name": "solc",
    "version": "0.8.0+commit.c7dfd78e.Emscripten.clang"
  },
  "schemaVersion": "3.4.1",
  "updatedAt": "2021-12-09T07:21:45.281Z",
  "networkType": "ethereum",
  "devdoc": {
    "kind": "dev",
    "methods": {
      "approve(address,uint256)": {
        "details": "See {IERC721-approve}."
      },
      "balanceOf(address)": {
        "details": "See {IERC721-balanceOf}."
      },
      "getApproved(uint256)": {
        "details": "See {IERC721-getApproved}."
      },
      "isApprovedForAll(address,address)": {
        "details": "See {IERC721-isApprovedForAll}."
      },
      "name()": {
        "details": "See {IERC721Metadata-name}."
      },
      "owner()": {
        "details": "Returns the address of the current owner."
      },
      "ownerOf(uint256)": {
        "details": "See {IERC721-ownerOf}."
      },
      "renounceOwnership()": {
        "details": "Leaves the contract without owner. It will not be possible to call `onlyOwner` functions anymore. Can only be called by the current owner. NOTE: Renouncing ownership will leave the contract without an owner, thereby removing any functionality that is only available to the owner."
      },
      "safeMint()": {
        "details": "Safely mints `nextTokenId` and transfers it to `to`. Requirements: - `tokenId` must not exist. - If `to` refers to a smart contract, it must implement {IERC721Receiver-onERC721Received}, which is called upon a safe transfer. Emits a {Transfer} event."
      },
      "safeTransferFrom(address,address,uint256)": {
        "details": "See {IERC721-safeTransferFrom}."
      },
      "safeTransferFrom(address,address,uint256,bytes)": {
        "details": "See {IERC721-safeTransferFrom}."
      },
      "setApprovalForAll(address,bool)": {
        "details": "See {IERC721-setApprovalForAll}."
      },
      "supportsInterface(bytes4)": {
        "details": "See {IERC165-supportsInterface}."
      },
      "symbol()": {
        "details": "See {IERC721Metadata-symbol}."
      },
      "tokenURI(uint256)": {
        "details": "See {IERC721Metadata-tokenURI}."
      },
      "transferFrom(address,address,uint256)": {
        "details": "See {IERC721-transferFrom}."
      },
      "transferOwnership(address)": {
        "details": "Transfers ownership of the contract to a new account (`newOwner`). Can only be called by the current owner."
      }
    },
    "version": 1
  },
  "userdoc": {
    "kind": "user",
    "methods": {},
    "version": 1
  }
}