{
  "contractName": "DynamicBlockPhaseMock",
  "abi": [
    {
      "inputs": [],
      "stateMutability": "nonpayable",
      "type": "constructor"
    },
    {
      "anonymous": false,
      "inputs": [
        {
          "indexed": false,
          "internalType": "uint256",
          "name": "lastBlock",
          "type": "uint256"
        },
        {
          "indexed": false,
          "internalType": "uint256",
          "name": "phase",
          "type": "uint256"
        }
      ],
      "name": "BlockPhaseUpdated",
      "type": "event"
    },
    {
      "inputs": [],
      "name": "blockPhase",
      "outputs": [
        {
          "internalType": "uint256",
          "name": "",
          "type": "uint256"
        }
      ],
      "stateMutability": "view",
      "type": "function"
    },
    {
      "inputs": [],
      "name": "blocksOfCurrPhase",
      "outputs": [
        {
          "internalType": "uint256",
          "name": "",
          "type": "uint256"
        }
      ],
      "stateMutability": "view",
      "type": "function"
    },
    {
      "inputs": [],
      "name": "increasedBlockPhase",
      "outputs": [
        {
          "internalType": "uint256",
          "name": "",
          "type": "uint256"
        }
      ],
      "stateMutability": "view",
      "type": "function"
    },
    {
      "inputs": [],
      "name": "lastBlock",
      "outputs": [
        {
          "internalType": "uint256",
          "name": "",
          "type": "uint256"
        }
      ],
      "stateMutability": "view",
      "type": "function"
    },
    {
      "inputs": [],
      "name": "lastBlockPhase",
      "outputs": [
        {
          "internalType": "uint256",
          "name": "",
          "type": "uint256"
        }
      ],
      "stateMutability": "view",
      "type": "function"
    },
    {
      "inputs": [],
      "name": "startBlock",
      "outputs": [
        {
          "internalType": "uint256",
          "name": "",
          "type": "uint256"
        }
      ],
      "stateMutability": "view",
      "type": "function"
    },
    {
      "inputs": [],
      "name": "updateBlockPhase",
      "outputs": [],
      "stateMutability": "nonpayable",
      "type": "function"
    },
    {
      "inputs": [],
      "name": "maxBlockPhase",
      "outputs": [
        {
          "internalType": "uint256",
          "name": "",
          "type": "uint256"
        }
      ],
      "stateMutability": "pure",
      "type": "function"
    },
    {
      "inputs": [
        {
          "internalType": "uint256",
          "name": "_phase",
          "type": "uint256"
        }
      ],
      "name": "blocksGivenPhase",
      "outputs": [
        {
          "internalType": "uint256",
          "name": "",
          "type": "uint256"
        }
      ],
      "stateMutability": "pure",
      "type": "function"
    }
  ],
  "bytecode": "0x608060405234801561001057600080fd5b50436000819055506000546001819055506105ef806100306000396000f3fe608060405234801561001057600080fd5b50600436106100935760003560e01c80637141493e116100665780637141493e146100fc578063737ff0941461011a578063806b984f1461013857806393bc856614610156578063d85dcb931461018657610093565b806306d9481d1461009857806329b5ffb0146100b657806348cd4cb1146100d45780635cbf824f146100f2575b600080fd5b6100a06101a4565b6040516100ad9190610452565b60405180910390f35b6100be610283565b6040516100cb9190610452565b60405180910390f35b6100dc61028c565b6040516100e99190610452565b60405180910390f35b6100fa610292565b005b610104610358565b6040516101119190610452565b60405180910390f35b61012261038d565b60405161012f9190610452565b60405180910390f35b6101406103b0565b60405161014d9190610452565b60405180910390f35b610170600480360381019061016b919061041a565b6103b6565b60405161017d9190610452565b60405180910390f35b61018e6103d3565b60405161019b9190610452565b60405180910390f35b60006101ae610283565b600254106101bf5760009050610280565b60006101d6600154436103d990919063ffffffff16565b9050600060025490505b6000821180156101f857506101f4816103b6565b8210155b1561023557610218610209826103b6565b836103d990919063ffffffff16565b915061022e6001826103ef90919063ffffffff16565b90506101e0565b61023d610283565b81111561026557610260600254610252610283565b6103d990919063ffffffff16565b61027b565b61027a600254826103d990919063ffffffff16565b5b925050505b90565b60006004905090565b60005481565b600061029c6101a4565b9050600181106103555760005b818110156102fb576102e26102d16102cc836002546103ef90919063ffffffff16565b6103b6565b6001546103ef90919063ffffffff16565b60018190555080806102f39061052a565b9150506102a9565b50610311816002546103ef90919063ffffffff16565b6002819055507fba442b0557701fc97a8bdce0e8bdfcf4f526c381d6e728aee08113b4114aaeff60015460025460405161034c92919061046d565b60405180910390a15b50565b60008061036361038d565b905061036d610283565b811061037d57600091505061038a565b610386816103b6565b9150505b90565b60006103ab61039a6101a4565b6002546103ef90919063ffffffff16565b905090565b60015481565b60006103cc6001836103ef90919063ffffffff16565b9050919050565b60025481565b600081836103e791906104ec565b905092915050565b600081836103fd9190610496565b905092915050565b600081359050610414816105a2565b92915050565b60006020828403121561042c57600080fd5b600061043a84828501610405565b91505092915050565b61044c81610520565b82525050565b60006020820190506104676000830184610443565b92915050565b60006040820190506104826000830185610443565b61048f6020830184610443565b9392505050565b60006104a182610520565b91506104ac83610520565b9250827fffffffffffffffffffffffffffffffffffffffffffffffffffffffffffffffff038211156104e1576104e0610573565b5b828201905092915050565b60006104f782610520565b915061050283610520565b92508282101561051557610514610573565b5b828203905092915050565b6000819050919050565b600061053582610520565b91507fffffffffffffffffffffffffffffffffffffffffffffffffffffffffffffffff82141561056857610567610573565b5b600182019050919050565b7f4e487b7100000000000000000000000000000000000000000000000000000000600052601160045260246000fd5b6105ab81610520565b81146105b657600080fd5b5056fea264697066735822122075430573bde3260f9c4a2ae61f28a16fb4723b2e36564711f9826fbdd763c65c64736f6c63430008000033",
  "immutableReferences": {},
  "source": "// SPDX-License-Identifier: GPL3.0\npragma solidity ^0.8.0;\n\nimport \"../DynamicBlockPhase.sol\";\n\ncontract DynamicBlockPhaseMock is DynamicBlockPhase {\n    using SafeMath for uint256;\n\n    constructor() DynamicBlockPhase() {}\n\n    function maxBlockPhase() public override virtual pure returns(uint256) {\n        return 4;\n    }\n\n    function blocksGivenPhase(uint256 _phase) public override virtual pure returns(uint256) {\n        return _phase.add(1);\n    }\n}",
  "sourcePath": "/Users/thestar/Development/go/src/work/goodata/good-sleep-contracts/contracts/mocks/DynamicBlockPhaseMock.sol",
  "compiler": {
    "name": "solc",
    "version": "0.8.0+commit.c7dfd78e.Emscripten.clang"
  },
  "schemaVersion": "3.4.1",
  "updatedAt": "2021-12-09T07:19:30.048Z",
  "devdoc": {
    "kind": "dev",
    "methods": {
      "blocksGivenPhase(uint256)": {
        "details": "need to implement in child contract."
      },
      "maxBlockPhase()": {
        "details": "need to implement in child contract. Its range is from 0 to maxBlockPhase, excluding maxBlockPhase."
      }
    },
    "version": 1
  },
  "userdoc": {
    "kind": "user",
    "methods": {},
    "version": 1
  }
}