{
  "contractName": "MetaTx",
  "abi": [
    {
      "inputs": [],
      "stateMutability": "nonpayable",
      "type": "constructor"
    },
    {
      "inputs": [
        {
          "internalType": "address",
          "name": "from",
          "type": "address"
        }
      ],
      "name": "getNonce",
      "outputs": [
        {
          "internalType": "uint256",
          "name": "",
          "type": "uint256"
        }
      ],
      "stateMutability": "view",
      "type": "function",
      "constant": true
    },
    {
      "inputs": [
        {
          "components": [
            {
              "internalType": "address",
              "name": "from",
              "type": "address"
            },
            {
              "internalType": "address",
              "name": "to",
              "type": "address"
            },
            {
              "internalType": "uint256",
              "name": "value",
              "type": "uint256"
            },
            {
              "internalType": "uint256",
              "name": "gas",
              "type": "uint256"
            },
            {
              "internalType": "uint256",
              "name": "nonce",
              "type": "uint256"
            },
            {
              "internalType": "bytes",
              "name": "data",
              "type": "bytes"
            }
          ],
          "internalType": "struct MetaTx.ForwardRequest",
          "name": "req",
          "type": "tuple"
        },
        {
          "internalType": "bytes",
          "name": "signature",
          "type": "bytes"
        }
      ],
      "name": "verify",
      "outputs": [
        {
          "internalType": "bool",
          "name": "",
          "type": "bool"
        }
      ],
      "stateMutability": "view",
      "type": "function",
      "constant": true
    },
    {
      "inputs": [
        {
          "components": [
            {
              "internalType": "address",
              "name": "from",
              "type": "address"
            },
            {
              "internalType": "address",
              "name": "to",
              "type": "address"
            },
            {
              "internalType": "uint256",
              "name": "value",
              "type": "uint256"
            },
            {
              "internalType": "uint256",
              "name": "gas",
              "type": "uint256"
            },
            {
              "internalType": "uint256",
              "name": "nonce",
              "type": "uint256"
            },
            {
              "internalType": "bytes",
              "name": "data",
              "type": "bytes"
            }
          ],
          "internalType": "struct MetaTx.ForwardRequest",
          "name": "req",
          "type": "tuple"
        },
        {
          "internalType": "bytes",
          "name": "signature",
          "type": "bytes"
        }
      ],
      "name": "execute",
      "outputs": [
        {
          "internalType": "bool",
          "name": "",
          "type": "bool"
        },
        {
          "internalType": "bytes",
          "name": "",
          "type": "bytes"
        }
      ],
      "stateMutability": "payable",
      "type": "function",
      "payable": true
    },
    {
      "inputs": [
        {
          "components": [
            {
              "internalType": "address",
              "name": "from",
              "type": "address"
            },
            {
              "internalType": "address",
              "name": "to",
              "type": "address"
            },
            {
              "internalType": "uint256",
              "name": "value",
              "type": "uint256"
            },
            {
              "internalType": "uint256",
              "name": "gas",
              "type": "uint256"
            },
            {
              "internalType": "uint256",
              "name": "nonce",
              "type": "uint256"
            },
            {
              "internalType": "bytes",
              "name": "data",
              "type": "bytes"
            }
          ],
          "internalType": "struct MetaTx.ForwardRequest",
          "name": "req",
          "type": "tuple"
        },
        {
          "internalType": "bytes",
          "name": "signature",
          "type": "bytes"
        }
      ],
      "name": "mustExecute",
      "outputs": [
        {
          "internalType": "bytes",
          "name": "",
          "type": "bytes"
        }
      ],
      "stateMutability": "payable",
      "type": "function",
      "payable": true
    },
    {
      "inputs": [
        {
          "components": [
            {
              "internalType": "address",
              "name": "from",
              "type": "address"
            },
            {
              "internalType": "address",
              "name": "to",
              "type": "address"
            },
            {
              "internalType": "uint256",
              "name": "value",
              "type": "uint256"
            },
            {
              "internalType": "uint256",
              "name": "gas",
              "type": "uint256"
            },
            {
              "internalType": "uint256",
              "name": "nonce",
              "type": "uint256"
            },
            {
              "internalType": "bytes",
              "name": "data",
              "type": "bytes"
            }
          ],
          "internalType": "struct MetaTx.ForwardRequest",
          "name": "req",
          "type": "tuple"
        }
      ],
      "name": "digest",
      "outputs": [
        {
          "internalType": "bytes32",
          "name": "",
          "type": "bytes32"
        }
      ],
      "stateMutability": "view",
      "type": "function",
      "constant": true
    }
  ],
  "bytecode": "0x6101206040523480156200001257600080fd5b506040518060400160405280601081526020017f4d696e696d616c466f72776172646572000000000000000000000000000000008152506040518060400160405280600581526020017f302e302e3100000000000000000000000000000000000000000000000000000081525060008280519060200120905060008280519060200120905060007f8b73c3c69bb8fe3d512ecc4cf759cc79239f7b179b0ffacaa9a75d522b39400f90508260c081815250508160e081815250504660a08181525050620000e78184846200010260201b60201c565b60808181525050806101008181525050505050505062000216565b600083838346306040516020016200011f95949392919062000171565b6040516020818303038152906040528051906020012090509392505050565b6200014981620001ce565b82525050565b6200015a81620001e2565b82525050565b6200016b816200020c565b82525050565b600060a0820190506200018860008301886200014f565b6200019760208301876200014f565b620001a660408301866200014f565b620001b5606083018562000160565b620001c460808301846200013e565b9695505050505050565b6000620001db82620001ec565b9050919050565b6000819050919050565b600073ffffffffffffffffffffffffffffffffffffffff82169050919050565b6000819050919050565b60805160a05160c05160e0516101005161190f6200025b600039600061089f015260006108e1015260006108c00152600061084c01526000610874015261190f6000f3fe60806040526004361061004a5760003560e01c80632738c6171461004f5780632d0335ab1461008c57806347153f82146100c95780639be8573d146100fa578063bf5d3bdb1461012a575b600080fd5b34801561005b57600080fd5b5061007660048036038101906100719190610f4a565b610167565b6040516100839190611437565b60405180910390f35b34801561009857600080fd5b506100b360048036038101906100ae9190610f21565b610220565b6040516100c0919061163b565b60405180910390f35b6100e360048036038101906100de9190610f8b565b610268565b6040516100f1929190611407565b60405180910390f35b610114600480360381019061010f9190610f8b565b610440565b6040516101219190611559565b60405180910390f35b34801561013657600080fd5b50610151600480360381019061014c9190610f8b565b610652565b60405161015e91906113ec565b60405180910390f35b60006102197fdd8f4b70b0f4393e889bd39128a30628a78b61816a9eb8199759e7a349657e488360000160208101906101a09190610f21565b8460200160208101906101b39190610f21565b856040013586606001358760800135888060a001906101d29190611656565b6040516101e092919061135b565b60405180910390206040516020016101fe9796959493929190611452565b60405160208183030381529060405280519060200120610807565b9050919050565b60008060008373ffffffffffffffffffffffffffffffffffffffff1673ffffffffffffffffffffffffffffffffffffffff168152602001908152602001600020549050919050565b60006060610277858585610652565b6102b6576040517f08c379a00000000000000000000000000000000000000000000000000000000081526004016102ad9061159b565b60405180910390fd5b600185608001356102c791906116f0565b6000808760000160208101906102dd9190610f21565b73ffffffffffffffffffffffffffffffffffffffff1673ffffffffffffffffffffffffffffffffffffffff168152602001908152602001600020819055506000808660200160208101906103319190610f21565b73ffffffffffffffffffffffffffffffffffffffff1687606001358860400135898060a001906103619190611656565b8b60000160208101906103749190610f21565b60405160200161038693929190611374565b6040516020818303038152906040526040516103a2919061139e565b600060405180830381858888f193505050503d80600081146103e0576040519150601f19603f3d011682016040523d82523d6000602084013e6103e5565b606091505b5091509150603f87606001356103fb9190611746565b5a11610430577f4e487b7100000000000000000000000000000000000000000000000000000000600052600160045260246000fd5b8181935093505050935093915050565b606061044d848484610652565b61048c576040517f08c379a00000000000000000000000000000000000000000000000000000000081526004016104839061159b565b60405180910390fd5b6001846080013561049d91906116f0565b6000808660000160208101906104b39190610f21565b73ffffffffffffffffffffffffffffffffffffffff1673ffffffffffffffffffffffffffffffffffffffff168152602001908152602001600020819055506000808560200160208101906105079190610f21565b73ffffffffffffffffffffffffffffffffffffffff1686606001358760400135888060a001906105379190611656565b8a600001602081019061054a9190610f21565b60405160200161055c93929190611374565b604051602081830303815290604052604051610578919061139e565b600060405180830381858888f193505050503d80600081146105b6576040519150601f19603f3d011682016040523d82523d6000602084013e6105bb565b606091505b5091509150603f86606001356105d19190611746565b5a11610606577f4e487b7100000000000000000000000000000000000000000000000000000000600052600160045260246000fd5b81610646576040517f08c379a000000000000000000000000000000000000000000000000000000000815260040161063d9061161b565b60405180910390fd5b80925050509392505050565b60008061075b84848080601f016020809104026020016040519081016040528093929190818152602001838380828437600081840152601f19601f8201169050808301925050505050505061074d7fdd8f4b70b0f4393e889bd39128a30628a78b61816a9eb8199759e7a349657e488860000160208101906106d49190610f21565b8960200160208101906106e79190610f21565b8a604001358b606001358c608001358d8060a001906107069190611656565b60405161071492919061135b565b60405180910390206040516020016107329796959493929190611452565b60405160208183030381529060405280519060200120610807565b61082190919063ffffffff16565b905084608001356000808760000160208101906107789190610f21565b73ffffffffffffffffffffffffffffffffffffffff1673ffffffffffffffffffffffffffffffffffffffff168152602001908152602001600020541480156107fd57508460000160208101906107ce9190610f21565b73ffffffffffffffffffffffffffffffffffffffff168173ffffffffffffffffffffffffffffffffffffffff16145b9150509392505050565b600061081a610814610848565b8361090b565b9050919050565b6000806000610830858561093e565b9150915061083d816109c1565b819250505092915050565b60007f000000000000000000000000000000000000000000000000000000000000000046141561089a577f00000000000000000000000000000000000000000000000000000000000000009050610908565b6109057f00000000000000000000000000000000000000000000000000000000000000007f00000000000000000000000000000000000000000000000000000000000000007f0000000000000000000000000000000000000000000000000000000000000000610d12565b90505b90565b600082826040516020016109209291906113b5565b60405160208183030381529060405280519060200120905092915050565b6000806041835114156109805760008060006020860151925060408601519150606086015160001a905061097487828585610d4c565b945094505050506109ba565b6040835114156109b15760008060208501519150604085015190506109a6868383610e59565b9350935050506109ba565b60006002915091505b9250929050565b600060048111156109fb577f4e487b7100000000000000000000000000000000000000000000000000000000600052602160045260246000fd5b816004811115610a34577f4e487b7100000000000000000000000000000000000000000000000000000000600052602160045260246000fd5b1415610a3f57610d0f565b60016004811115610a79577f4e487b7100000000000000000000000000000000000000000000000000000000600052602160045260246000fd5b816004811115610ab2577f4e487b7100000000000000000000000000000000000000000000000000000000600052602160045260246000fd5b1415610af3576040517f08c379a0000000000000000000000000000000000000000000000000000000008152600401610aea9061157b565b60405180910390fd5b60026004811115610b2d577f4e487b7100000000000000000000000000000000000000000000000000000000600052602160045260246000fd5b816004811115610b66577f4e487b7100000000000000000000000000000000000000000000000000000000600052602160045260246000fd5b1415610ba7576040517f08c379a0000000000000000000000000000000000000000000000000000000008152600401610b9e906115bb565b60405180910390fd5b60036004811115610be1577f4e487b7100000000000000000000000000000000000000000000000000000000600052602160045260246000fd5b816004811115610c1a577f4e487b7100000000000000000000000000000000000000000000000000000000600052602160045260246000fd5b1415610c5b576040517f08c379a0000000000000000000000000000000000000000000000000000000008152600401610c52906115db565b60405180910390fd5b600480811115610c94577f4e487b7100000000000000000000000000000000000000000000000000000000600052602160045260246000fd5b816004811115610ccd577f4e487b7100000000000000000000000000000000000000000000000000000000600052602160045260246000fd5b1415610d0e576040517f08c379a0000000000000000000000000000000000000000000000000000000008152600401610d05906115fb565b60405180910390fd5b5b50565b60008383834630604051602001610d2d9594939291906114c1565b6040516020818303038152906040528051906020012090509392505050565b6000807f7fffffffffffffffffffffffffffffff5d576e7357a4501ddfe92f46681b20a08360001c1115610d87576000600391509150610e50565b601b8560ff1614158015610d9f5750601c8560ff1614155b15610db1576000600491509150610e50565b600060018787878760405160008152602001604052604051610dd69493929190611514565b6020604051602081039080840390855afa158015610df8573d6000803e3d6000fd5b505050602060405103519050600073ffffffffffffffffffffffffffffffffffffffff168173ffffffffffffffffffffffffffffffffffffffff161415610e4757600060019250925050610e50565b80600092509250505b94509492505050565b6000806000807f7fffffffffffffffffffffffffffffffffffffffffffffffffffffffffffffff85169150601b8560ff1c019050610e9987828885610d4c565b935093505050935093915050565b600081359050610eb6816118c2565b92915050565b60008083601f840112610ece57600080fd5b8235905067ffffffffffffffff811115610ee757600080fd5b602083019150836001820283011115610eff57600080fd5b9250929050565b600060c08284031215610f1857600080fd5b81905092915050565b600060208284031215610f3357600080fd5b6000610f4184828501610ea7565b91505092915050565b600060208284031215610f5c57600080fd5b600082013567ffffffffffffffff811115610f7657600080fd5b610f8284828501610f06565b91505092915050565b600080600060408486031215610fa057600080fd5b600084013567ffffffffffffffff811115610fba57600080fd5b610fc686828701610f06565b935050602084013567ffffffffffffffff811115610fe357600080fd5b610fef86828701610ebc565b92509250509250925092565b61100481611777565b82525050565b61101b61101682611777565b611818565b82525050565b61102a81611789565b82525050565b61103981611795565b82525050565b61105061104b82611795565b61182a565b82525050565b600061106283856116c9565b935061106f8385846117d6565b82840190509392505050565b6000611086826116ad565b61109081856116b8565b93506110a08185602086016117e5565b6110a9816118a4565b840191505092915050565b60006110bf826116ad565b6110c981856116c9565b93506110d98185602086016117e5565b80840191505092915050565b60006110f26018836116d4565b91507f45434453413a20696e76616c6964207369676e617475726500000000000000006000830152602082019050919050565b60006111326032836116d4565b91507f4d696e696d616c466f727761726465723a207369676e617475726520646f657360008301527f206e6f74206d61746368207265717565737400000000000000000000000000006020830152604082019050919050565b6000611198601f836116d4565b91507f45434453413a20696e76616c6964207369676e6174757265206c656e677468006000830152602082019050919050565b60006111d86002836116e5565b91507f19010000000000000000000000000000000000000000000000000000000000006000830152600282019050919050565b60006112186022836116d4565b91507f45434453413a20696e76616c6964207369676e6174757265202773272076616c60008301527f75650000000000000000000000000000000000000000000000000000000000006020830152604082019050919050565b600061127e6022836116d4565b91507f45434453413a20696e76616c6964207369676e6174757265202776272076616c60008301527f75650000000000000000000000000000000000000000000000000000000000006020830152604082019050919050565b60006112e4602e836116d4565b91507f4d696e696d616c466f727761726465723a2066756e6374696f6e2063616c6c2060008301527f6e6f74207375636365737366756c0000000000000000000000000000000000006020830152604082019050919050565b611346816117bf565b82525050565b611355816117c9565b82525050565b6000611368828486611056565b91508190509392505050565b6000611381828587611056565b915061138d828461100a565b601482019150819050949350505050565b60006113aa82846110b4565b915081905092915050565b60006113c0826111cb565b91506113cc828561103f565b6020820191506113dc828461103f565b6020820191508190509392505050565b60006020820190506114016000830184611021565b92915050565b600060408201905061141c6000830185611021565b818103602083015261142e818461107b565b90509392505050565b600060208201905061144c6000830184611030565b92915050565b600060e082019050611467600083018a611030565b6114746020830189610ffb565b6114816040830188610ffb565b61148e606083018761133d565b61149b608083018661133d565b6114a860a083018561133d565b6114b560c0830184611030565b98975050505050505050565b600060a0820190506114d66000830188611030565b6114e36020830187611030565b6114f06040830186611030565b6114fd606083018561133d565b61150a6080830184610ffb565b9695505050505050565b60006080820190506115296000830187611030565b611536602083018661134c565b6115436040830185611030565b6115506060830184611030565b95945050505050565b60006020820190508181036000830152611573818461107b565b905092915050565b60006020820190508181036000830152611594816110e5565b9050919050565b600060208201905081810360008301526115b481611125565b9050919050565b600060208201905081810360008301526115d48161118b565b9050919050565b600060208201905081810360008301526115f48161120b565b9050919050565b6000602082019050818103600083015261161481611271565b9050919050565b60006020820190508181036000830152611634816112d7565b9050919050565b6000602082019050611650600083018461133d565b92915050565b6000808335600160200384360303811261166f57600080fd5b80840192508235915067ffffffffffffffff82111561168d57600080fd5b6020830192506001820236038313156116a557600080fd5b509250929050565b600081519050919050565b600082825260208201905092915050565b600081905092915050565b600082825260208201905092915050565b600081905092915050565b60006116fb826117bf565b9150611706836117bf565b9250827fffffffffffffffffffffffffffffffffffffffffffffffffffffffffffffffff0382111561173b5761173a611846565b5b828201905092915050565b6000611751826117bf565b915061175c836117bf565b92508261176c5761176b611875565b5b828204905092915050565b60006117828261179f565b9050919050565b60008115159050919050565b6000819050919050565b600073ffffffffffffffffffffffffffffffffffffffff82169050919050565b6000819050919050565b600060ff82169050919050565b82818337600083830152505050565b60005b838110156118035780820151818401526020810190506117e8565b83811115611812576000848401525b50505050565b600061182382611834565b9050919050565b6000819050919050565b600061183f826118b5565b9050919050565b7f4e487b7100000000000000000000000000000000000000000000000000000000600052601160045260246000fd5b7f4e487b7100000000000000000000000000000000000000000000000000000000600052601260045260246000fd5b6000601f19601f8301169050919050565b60008160601b9050919050565b6118cb81611777565b81146118d657600080fd5b5056fea26469706673582212200207065cd5643ef4752f451226dab616dedaabb3589c023355f3b25bcfb12fd564736f6c63430008000033",
  "immutableReferences": {
    "5479": [
      {
        "length": 32,
        "start": 2164
      }
    ],
    "5481": [
      {
        "length": 32,
        "start": 2124
      }
    ],
    "5483": [
      {
        "length": 32,
        "start": 2240
      }
    ],
    "5485": [
      {
        "length": 32,
        "start": 2273
      }
    ],
    "5487": [
      {
        "length": 32,
        "start": 2207
      }
    ]
  },
  "source": "// SPDX-License-Identifier: GPL3.0\n\npragma solidity ^0.8.0;\n\nimport \"@openzeppelin/contracts/utils/cryptography/ECDSA.sol\";\nimport \"@openzeppelin/contracts/utils/cryptography/draft-EIP712.sol\";\n\n/**\n * This file copy from openzeppelin, and make some changes.\n */\n\n/**\n * @dev Simple minimal forwarder to be used together with an ERC2771 compatible contract. See {ERC2771Context}.\n */\ncontract MetaTx is EIP712 {\n    using ECDSA for bytes32;\n\n    struct ForwardRequest {\n        address from;\n        address to;\n        uint256 value;\n        uint256 gas;\n        uint256 nonce;\n        bytes data;\n    }\n\n    bytes32 private constant _TYPEHASH =\n        keccak256(\"ForwardRequest(address from,address to,uint256 value,uint256 gas,uint256 nonce,bytes data)\");\n\n    mapping(address => uint256) private _nonces;\n\n    constructor() EIP712(\"MinimalForwarder\", \"0.0.1\") {}\n\n    function getNonce(address from) public view returns (uint256) {\n        return _nonces[from];\n    }\n\n    function verify(ForwardRequest calldata req, bytes calldata signature) public view returns (bool) {\n        address signer = _hashTypedDataV4(\n            keccak256(abi.encode(_TYPEHASH, req.from, req.to, req.value, req.gas, req.nonce, keccak256(req.data)))\n        ).recover(signature);\n        return _nonces[req.from] == req.nonce && signer == req.from;\n    }\n\n    function execute(ForwardRequest calldata req, bytes calldata signature)\n        public\n        payable\n        returns (bool, bytes memory)\n    {\n        require(verify(req, signature), \"MinimalForwarder: signature does not match request\");\n        _nonces[req.from] = req.nonce + 1;\n\n        (bool success, bytes memory returndata) = req.to.call{gas: req.gas, value: req.value}(\n            abi.encodePacked(req.data, req.from)\n        );\n        // Validate that the relayer has sent enough gas for the call.\n        // See https://ronan.eth.link/blog/ethereum-gas-dangers/\n        assert(gasleft() > req.gas / 63);\n\n        return (success, returndata);\n    }\n\n    /**\n     * @dev executes req. Revert when req execution fails.\n     */\n    function mustExecute(ForwardRequest calldata req, bytes calldata signature)\n        public\n        payable\n        returns (bytes memory)\n    {\n        require(verify(req, signature), \"MinimalForwarder: signature does not match request\");\n        _nonces[req.from] = req.nonce + 1;\n\n        (bool success, bytes memory returndata) = req.to.call{gas: req.gas, value: req.value}(\n            abi.encodePacked(req.data, req.from)\n        );\n        // Validate that the relayer has sent enough gas for the call.\n        // See https://ronan.eth.link/blog/ethereum-gas-dangers/\n        assert(gasleft() > req.gas / 63);\n        require(success, \"MinimalForwarder: function call not successful\");\n        return returndata;\n    }\n\n    function digest(ForwardRequest calldata req) public view returns (bytes32) {\n        return _hashTypedDataV4(\n            keccak256(abi.encode(_TYPEHASH, req.from, req.to, req.value, req.gas, req.nonce, keccak256(req.data)))\n        );\n    }\n}\n",
  "sourcePath": "/Users/thestar/Development/go/src/work/goodata/good-sleep-contracts/contracts/MetaTx.sol",
  "compiler": {
    "name": "solc",
    "version": "0.8.0+commit.c7dfd78e.Emscripten.clang"
  },
  "schemaVersion": "3.4.1",
  "updatedAt": "2021-12-09T07:21:45.244Z",
  "networkType": "ethereum",
  "devdoc": {
    "details": "Simple minimal forwarder to be used together with an ERC2771 compatible contract. See {ERC2771Context}.",
    "kind": "dev",
    "methods": {
      "mustExecute((address,address,uint256,uint256,uint256,bytes),bytes)": {
        "details": "executes req. Revert when req execution fails."
      }
    },
    "version": 1
  },
  "userdoc": {
    "kind": "user",
    "methods": {},
    "version": 1
  }
}