{
  "contractName": "RewardV1ForTest",
  "abi": [
    {
      "inputs": [
        {
          "internalType": "address",
          "name": "_good",
          "type": "address"
        },
        {
          "internalType": "address",
          "name": "trustedForwarder",
          "type": "address"
        }
      ],
      "stateMutability": "nonpayable",
      "type": "constructor"
    },
    {
      "anonymous": false,
      "inputs": [
        {
          "indexed": false,
          "internalType": "uint256",
          "name": "lastBlock",
          "type": "uint256"
        },
        {
          "indexed": false,
          "internalType": "uint256",
          "name": "phase",
          "type": "uint256"
        }
      ],
      "name": "BlockPhaseUpdated",
      "type": "event"
    },
    {
      "anonymous": false,
      "inputs": [
        {
          "indexed": true,
          "internalType": "uint256",
          "name": "tokenId",
          "type": "uint256"
        },
        {
          "indexed": false,
          "internalType": "uint256",
          "name": "amount",
          "type": "uint256"
        }
      ],
      "name": "Feeding",
      "type": "event"
    },
    {
      "anonymous": false,
      "inputs": [
        {
          "indexed": true,
          "internalType": "uint256",
          "name": "oldMultiplier",
          "type": "uint256"
        },
        {
          "indexed": true,
          "internalType": "uint256",
          "name": "newMultiplier",
          "type": "uint256"
        }
      ],
      "name": "MultiplierUpdated",
      "type": "event"
    },
    {
      "anonymous": false,
      "inputs": [
        {
          "indexed": true,
          "internalType": "address",
          "name": "previousOwner",
          "type": "address"
        },
        {
          "indexed": true,
          "internalType": "address",
          "name": "newOwner",
          "type": "address"
        }
      ],
      "name": "OwnershipTransferred",
      "type": "event"
    },
    {
      "anonymous": false,
      "inputs": [
        {
          "indexed": true,
          "internalType": "uint256",
          "name": "tokenId",
          "type": "uint256"
        },
        {
          "indexed": true,
          "internalType": "address",
          "name": "to",
          "type": "address"
        },
        {
          "indexed": false,
          "internalType": "uint256",
          "name": "amount",
          "type": "uint256"
        }
      ],
      "name": "Withdrawal",
      "type": "event"
    },
    {
      "inputs": [],
      "name": "BLOCKS_PER_DAY",
      "outputs": [
        {
          "internalType": "uint256",
          "name": "",
          "type": "uint256"
        }
      ],
      "stateMutability": "view",
      "type": "function",
      "constant": true
    },
    {
      "inputs": [],
      "name": "BLOCKS_PER_MONTH",
      "outputs": [
        {
          "internalType": "uint256",
          "name": "",
          "type": "uint256"
        }
      ],
      "stateMutability": "view",
      "type": "function",
      "constant": true
    },
    {
      "inputs": [],
      "name": "BLOCKS_PER_WEEK",
      "outputs": [
        {
          "internalType": "uint256",
          "name": "",
          "type": "uint256"
        }
      ],
      "stateMutability": "view",
      "type": "function",
      "constant": true
    },
    {
      "inputs": [],
      "name": "avatarCount",
      "outputs": [
        {
          "internalType": "uint256",
          "name": "",
          "type": "uint256"
        }
      ],
      "stateMutability": "view",
      "type": "function",
      "constant": true
    },
    {
      "inputs": [
        {
          "internalType": "uint256",
          "name": "",
          "type": "uint256"
        }
      ],
      "name": "avatarOwner",
      "outputs": [
        {
          "internalType": "address",
          "name": "",
          "type": "address"
        }
      ],
      "stateMutability": "view",
      "type": "function",
      "constant": true
    },
    {
      "inputs": [
        {
          "components": [
            {
              "internalType": "uint256",
              "name": "tokenId",
              "type": "uint256"
            },
            {
              "internalType": "address",
              "name": "owner",
              "type": "address"
            },
            {
              "internalType": "uint256",
              "name": "amount",
              "type": "uint256"
            }
          ],
          "internalType": "struct IReward.FeedParam[]",
          "name": "params",
          "type": "tuple[]"
        }
      ],
      "name": "batchFeed",
      "outputs": [],
      "stateMutability": "nonpayable",
      "type": "function"
    },
    {
      "inputs": [],
      "name": "blockPhase",
      "outputs": [
        {
          "internalType": "uint256",
          "name": "",
          "type": "uint256"
        }
      ],
      "stateMutability": "view",
      "type": "function",
      "constant": true
    },
    {
      "inputs": [],
      "name": "currReward",
      "outputs": [
        {
          "internalType": "uint256",
          "name": "",
          "type": "uint256"
        }
      ],
      "stateMutability": "view",
      "type": "function",
      "constant": true
    },
    {
      "inputs": [
        {
          "internalType": "uint256",
          "name": "tokenId",
          "type": "uint256"
        },
        {
          "internalType": "address",
          "name": "owner",
          "type": "address"
        },
        {
          "internalType": "uint256",
          "name": "amount",
          "type": "uint256"
        }
      ],
      "name": "feed",
      "outputs": [],
      "stateMutability": "nonpayable",
      "type": "function"
    },
    {
      "inputs": [],
      "name": "increasedBlockPhase",
      "outputs": [
        {
          "internalType": "uint256",
          "name": "",
          "type": "uint256"
        }
      ],
      "stateMutability": "view",
      "type": "function",
      "constant": true
    },
    {
      "inputs": [],
      "name": "initialRewardPerAmount",
      "outputs": [
        {
          "internalType": "uint256",
          "name": "",
          "type": "uint256"
        }
      ],
      "stateMutability": "view",
      "type": "function",
      "constant": true
    },
    {
      "inputs": [
        {
          "internalType": "address",
          "name": "forwarder",
          "type": "address"
        }
      ],
      "name": "isTrustedForwarder",
      "outputs": [
        {
          "internalType": "bool",
          "name": "",
          "type": "bool"
        }
      ],
      "stateMutability": "view",
      "type": "function",
      "constant": true
    },
    {
      "inputs": [],
      "name": "lastBlock",
      "outputs": [
        {
          "internalType": "uint256",
          "name": "",
          "type": "uint256"
        }
      ],
      "stateMutability": "view",
      "type": "function",
      "constant": true
    },
    {
      "inputs": [],
      "name": "lastBlockPhase",
      "outputs": [
        {
          "internalType": "uint256",
          "name": "",
          "type": "uint256"
        }
      ],
      "stateMutability": "view",
      "type": "function",
      "constant": true
    },
    {
      "inputs": [
        {
          "internalType": "uint256",
          "name": "",
          "type": "uint256"
        }
      ],
      "name": "lastRewardRecords",
      "outputs": [
        {
          "internalType": "uint256",
          "name": "",
          "type": "uint256"
        }
      ],
      "stateMutability": "view",
      "type": "function",
      "constant": true
    },
    {
      "inputs": [],
      "name": "maxBlockPhase",
      "outputs": [
        {
          "internalType": "uint256",
          "name": "",
          "type": "uint256"
        }
      ],
      "stateMutability": "pure",
      "type": "function",
      "constant": true
    },
    {
      "inputs": [],
      "name": "multiplier",
      "outputs": [
        {
          "internalType": "uint256",
          "name": "",
          "type": "uint256"
        }
      ],
      "stateMutability": "view",
      "type": "function",
      "constant": true
    },
    {
      "inputs": [],
      "name": "owner",
      "outputs": [
        {
          "internalType": "address",
          "name": "",
          "type": "address"
        }
      ],
      "stateMutability": "view",
      "type": "function",
      "constant": true
    },
    {
      "inputs": [],
      "name": "phase",
      "outputs": [
        {
          "internalType": "uint256",
          "name": "",
          "type": "uint256"
        }
      ],
      "stateMutability": "view",
      "type": "function",
      "constant": true
    },
    {
      "inputs": [
        {
          "internalType": "uint256",
          "name": "",
          "type": "uint256"
        }
      ],
      "name": "records",
      "outputs": [
        {
          "internalType": "uint256",
          "name": "",
          "type": "uint256"
        }
      ],
      "stateMutability": "view",
      "type": "function",
      "constant": true
    },
    {
      "inputs": [],
      "name": "renounceOwnership",
      "outputs": [],
      "stateMutability": "nonpayable",
      "type": "function"
    },
    {
      "inputs": [
        {
          "internalType": "uint256",
          "name": "tokenId",
          "type": "uint256"
        }
      ],
      "name": "reward",
      "outputs": [
        {
          "internalType": "uint256",
          "name": "",
          "type": "uint256"
        }
      ],
      "stateMutability": "view",
      "type": "function",
      "constant": true
    },
    {
      "inputs": [],
      "name": "rewardSurplus",
      "outputs": [
        {
          "internalType": "uint256",
          "name": "",
          "type": "uint256"
        }
      ],
      "stateMutability": "view",
      "type": "function",
      "constant": true
    },
    {
      "inputs": [
        {
          "internalType": "uint256",
          "name": "_multiplier",
          "type": "uint256"
        }
      ],
      "name": "setMultiplier",
      "outputs": [],
      "stateMutability": "nonpayable",
      "type": "function"
    },
    {
      "inputs": [],
      "name": "startBlock",
      "outputs": [
        {
          "internalType": "uint256",
          "name": "",
          "type": "uint256"
        }
      ],
      "stateMutability": "view",
      "type": "function",
      "constant": true
    },
    {
      "inputs": [
        {
          "internalType": "address",
          "name": "newOwner",
          "type": "address"
        }
      ],
      "name": "transferOwnership",
      "outputs": [],
      "stateMutability": "nonpayable",
      "type": "function"
    },
    {
      "inputs": [],
      "name": "updateBlockPhase",
      "outputs": [],
      "stateMutability": "nonpayable",
      "type": "function"
    },
    {
      "inputs": [],
      "name": "updatePhase",
      "outputs": [],
      "stateMutability": "nonpayable",
      "type": "function"
    },
    {
      "inputs": [
        {
          "internalType": "uint256",
          "name": "tokenId",
          "type": "uint256"
        },
        {
          "internalType": "uint256",
          "name": "amount",
          "type": "uint256"
        }
      ],
      "name": "withdraw",
      "outputs": [],
      "stateMutability": "nonpayable",
      "type": "function"
    },
    {
      "inputs": [],
      "name": "maxPhase",
      "outputs": [
        {
          "internalType": "uint256",
          "name": "",
          "type": "uint256"
        }
      ],
      "stateMutability": "pure",
      "type": "function",
      "constant": true
    },
    {
      "inputs": [
        {
          "internalType": "uint256",
          "name": "avatarNum",
          "type": "uint256"
        }
      ],
      "name": "avatarNumPhase",
      "outputs": [
        {
          "internalType": "uint256",
          "name": "",
          "type": "uint256"
        }
      ],
      "stateMutability": "pure",
      "type": "function",
      "constant": true
    },
    {
      "inputs": [],
      "name": "blocksOfCurrPhase",
      "outputs": [
        {
          "internalType": "uint256",
          "name": "",
          "type": "uint256"
        }
      ],
      "stateMutability": "view",
      "type": "function",
      "constant": true
    },
    {
      "inputs": [
        {
          "internalType": "uint256",
          "name": "_phase",
          "type": "uint256"
        }
      ],
      "name": "blocksGivenPhase",
      "outputs": [
        {
          "internalType": "uint256",
          "name": "",
          "type": "uint256"
        }
      ],
      "stateMutability": "pure",
      "type": "function",
      "constant": true
    },
    {
      "inputs": [
        {
          "internalType": "uint256",
          "name": "_currPhase",
          "type": "uint256"
        }
      ],
      "name": "_currReward",
      "outputs": [
        {
          "internalType": "uint256",
          "name": "",
          "type": "uint256"
        }
      ],
      "stateMutability": "view",
      "type": "function",
      "constant": true
    },
    {
      "inputs": [
        {
          "internalType": "uint256",
          "name": "tokenId",
          "type": "uint256"
        },
        {
          "internalType": "uint256",
          "name": "amount",
          "type": "uint256"
        }
      ],
      "name": "estimateReward",
      "outputs": [
        {
          "internalType": "uint256",
          "name": "",
          "type": "uint256"
        }
      ],
      "stateMutability": "view",
      "type": "function",
      "constant": true
    }
  ],
  "bytecode": "0x6080604052670de0b6b3a76400006004556801158e460913d00000600c553480156200002a57600080fd5b50604051620022e9380380620022e98339818101604052810190620000509190620002c5565b8181808062000074620000686200012260201b60201c565b6200013e60201b60201c565b80600160006101000a81548173ffffffffffffffffffffffffffffffffffffffff021916908373ffffffffffffffffffffffffffffffffffffffff1602179055505050436005819055506005546006819055504360058190555060055460068190555081600960006101000a81548173ffffffffffffffffffffffffffffffffffffffff021916908373ffffffffffffffffffffffffffffffffffffffff1602179055505050505062000354565b6000620001396200020260201b620012231760201c565b905090565b60008060009054906101000a900473ffffffffffffffffffffffffffffffffffffffff169050816000806101000a81548173ffffffffffffffffffffffffffffffffffffffff021916908373ffffffffffffffffffffffffffffffffffffffff1602179055508173ffffffffffffffffffffffffffffffffffffffff168173ffffffffffffffffffffffffffffffffffffffff167f8be0079c531659141344cd1fd0a4f28419497f9722a3daafe3b4186f6b6457e060405160405180910390a35050565b600062000215336200024c60201b60201c565b156200022b57601436033560601c905062000248565b62000240620002a660201b620012551760201c565b905062000249565b5b90565b6000600160009054906101000a900473ffffffffffffffffffffffffffffffffffffffff1673ffffffffffffffffffffffffffffffffffffffff168273ffffffffffffffffffffffffffffffffffffffff16149050919050565b600033905090565b600081519050620002bf816200033a565b92915050565b60008060408385031215620002d957600080fd5b6000620002e985828601620002ae565b9250506020620002fc85828601620002ae565b9150509250929050565b600062000313826200031a565b9050919050565b600073ffffffffffffffffffffffffffffffffffffffff82169050919050565b620003458162000306565b81146200035157600080fd5b50565b611f8580620003646000396000f3fe608060405234801561001057600080fd5b50600436106102115760003560e01c80636fc6ecd711610125578063950c05f2116100ad578063c409084a1161007c578063c409084a146105f8578063d85dcb9314610616578063f2fde38b14610634578063f92cf2b814610650578063fc47e2091461066e57610211565b8063950c05f21461055e578063a96a30411461058e578063a9fb763c146105aa578063b1c9fe6e146105da57610211565b80637e5f43ff116100f45780637e5f43ff146104a4578063806b984f146104d45780638da5cb5b146104f25780638df5e6301461051057806393bc85661461052e57610211565b80636fc6ecd7146104405780637141493e1461045e578063715018a61461047c578063737ff0941461048657610211565b8063441a3e70116101a85780635b31cf09116101775780635b31cf09146103b05780635cbf824f146103e057806363adc5f9146103ea578063641579a6146104065780636bb987fe1461042257610211565b8063441a3e7014610316578063454404bf1461033257806348cd4cb114610362578063572b6c051461038057610211565b806312ecf0af116101e457806312ecf0af1461027a5780631b3ed722146102aa57806329b5ffb0146102c857806334461067146102e657610211565b8063034b9aae1461021657806306d9481d1461022057806309328be21461023e5780630de13a0f1461025c575b600080fd5b61021e61068c565b005b610228610705565b6040516102359190611c85565b60405180910390f35b6102466107e4565b6040516102539190611c85565b60405180910390f35b6102646107ea565b6040516102719190611c85565b60405180910390f35b610294600480360381019061028f91906118f0565b6107f0565b6040516102a19190611b86565b60405180910390f35b6102b2610823565b6040516102bf9190611c85565b60405180910390f35b6102d0610829565b6040516102dd9190611c85565b60405180910390f35b61030060048036038101906102fb91906118f0565b610838565b60405161030d9190611c85565b60405180910390f35b610330600480360381019061032b9190611991565b610850565b005b61034c600480360381019061034791906118f0565b6108b2565b6040516103599190611c85565b60405180910390f35b61036a610985565b6040516103779190611c85565b60405180910390f35b61039a6004803603810190610395919061185d565b61098b565b6040516103a79190611bca565b60405180910390f35b6103ca60048036038101906103c591906118f0565b6109e5565b6040516103d79190611c85565b60405180910390f35b6103e8610a90565b005b61040460048036038101906103ff9190611886565b610b56565b005b610420600480360381019061041b91906118f0565b610c52565b005b61042a610c92565b6040516104379190611c85565b60405180910390f35b610448610c97565b6040516104559190611c85565b60405180910390f35b610466610d49565b6040516104739190611c85565b60405180910390f35b610484610d5b565b005b61048e610de3565b60405161049b9190611c85565b60405180910390f35b6104be60048036038101906104b99190611991565b610e06565b6040516104cb9190611c85565b60405180910390f35b6104dc610e3b565b6040516104e99190611c85565b60405180910390f35b6104fa610e41565b6040516105079190611b86565b60405180910390f35b610518610e6a565b6040516105259190611c85565b60405180910390f35b610548600480360381019061054391906118f0565b610e73565b6040516105559190611c85565b60405180910390f35b610578600480360381019061057391906118f0565b610f93565b6040516105859190611c85565b60405180910390f35b6105a860048036038101906105a39190611942565b610fab565b005b6105c460048036038101906105bf91906118f0565b6110bd565b6040516105d19190611c85565b60405180910390f35b6105e26110da565b6040516105ef9190611c85565b60405180910390f35b6106006110ec565b60405161060d9190611c85565b60405180910390f35b61061e6110fd565b60405161062b9190611c85565b60405180910390f35b61064e6004803603810190610649919061185d565b611103565b005b6106586111fb565b6040516106659190611c85565b60405180910390f35b610676611212565b6040516106839190611c85565b60405180910390f35b610694610a90565b60006106a16008546109e5565b905060006106ad610de3565b9050808211156107015743600681905550816007819055507fba442b0557701fc97a8bdce0e8bdfcf4f526c381d6e728aee08113b4114aaeff436007546040516106f8929190611ca0565b60405180910390a15b5050565b600061070f610829565b6007541061072057600090506107e1565b60006107376006544361125d90919063ffffffff16565b9050600060075490505b600082118015610759575061075581610e73565b8210155b156107965761077961076a82610e73565b8361125d90919063ffffffff16565b915061078f60018261127390919063ffffffff16565b9050610741565b61079e610829565b8111156107c6576107c16007546107b3610829565b61125d90919063ffffffff16565b6107dc565b6107db6007548261125d90919063ffffffff16565b5b925050505b90565b60085481565b600c5481565b600b6020528060005260406000206000915054906101000a900473ffffffffffffffffffffffffffffffffffffffff1681565b60045481565b6000610833610e6a565b905090565b60026020528060005260406000206000915090505481565b600061085c8383611289565b90508073ffffffffffffffffffffffffffffffffffffffff16837f37e8063b72a944a76de602f32b82fd8c2a1c6f99564c727ffaf913c7762cd420846040516108a59190611c85565b60405180910390a3505050565b600080670de0b6b3a7640000905060008314156108d457600c54915050610980565b60018314156108f9576108f16010826114aa90919063ffffffff16565b915050610980565b600283141561091e57610916600c826114aa90919063ffffffff16565b915050610980565b60038314156109435761093b6008826114aa90919063ffffffff16565b915050610980565b6004831415610968576109606004826114aa90919063ffffffff16565b915050610980565b61097c6002826114aa90919063ffffffff16565b9150505b919050565b60055481565b6000600160009054906101000a900473ffffffffffffffffffffffffffffffffffffffff1673ffffffffffffffffffffffffffffffffffffffff168273ffffffffffffffffffffffffffffffffffffffff16149050919050565b6000600182116109f85760009050610a8b565b60028211610a095760019050610a8b565b60038211610a1a5760029050610a8b565b60048211610a2b5760039050610a8b565b60058211610a3c5760049050610a8b565b60068211610a4d5760059050610a8b565b600a8211610a5e5760069050610a8b565b60148211610a6f5760079050610a8b565b601e8211610a805760089050610a8b565b610a88610e6a565b90505b919050565b6000610a9a610705565b905060018110610b535760005b81811015610af957610ae0610acf610aca8360075461127390919063ffffffff16565b610e73565b60065461127390919063ffffffff16565b6006819055508080610af190611e63565b915050610aa7565b50610b0f8160075461127390919063ffffffff16565b6007819055507fba442b0557701fc97a8bdce0e8bdfcf4f526c381d6e728aee08113b4114aaeff600654600754604051610b4a929190611ca0565b60405180910390a15b50565b610b5e6114c0565b73ffffffffffffffffffffffffffffffffffffffff16610b7c610e41565b73ffffffffffffffffffffffffffffffffffffffff1614610bd2576040517f08c379a0000000000000000000000000000000000000000000000000000000008152600401610bc990611c25565b60405180910390fd5b60005b8151811015610c4e576000828281518110610c19577f4e487b7100000000000000000000000000000000000000000000000000000000600052603260045260246000fd5b60200260200101519050610c3a816000015182602001518360400151610fab565b508080610c4690611e63565b915050610bd5565b5050565b600060045490508160048190555081817f3c02d7351af6053255d947ce3f7b457726360edc933c441e9b1ad724f8ce5c7f60405160405180910390a35050565b601481565b6000600960009054906101000a900473ffffffffffffffffffffffffffffffffffffffff1673ffffffffffffffffffffffffffffffffffffffff166370a08231306040518263ffffffff1660e01b8152600401610cf49190611b86565b60206040518083038186803b158015610d0c57600080fd5b505afa158015610d20573d6000803e3d6000fd5b505050506040513d601f19601f82011682018060405250810190610d449190611919565b905090565b6000610d56600754610e73565b905090565b610d636114c0565b73ffffffffffffffffffffffffffffffffffffffff16610d81610e41565b73ffffffffffffffffffffffffffffffffffffffff1614610dd7576040517f08c379a0000000000000000000000000000000000000000000000000000000008152600401610dce90611c25565b60405180910390fd5b610de160006114cf565b565b6000610e01610df0610705565b60075461127390919063ffffffff16565b905090565b600080600a6000858152602001908152602001600020549050610e32838261127390919063ffffffff16565b91505092915050565b60065481565b60008060009054906101000a900473ffffffffffffffffffffffffffffffffffffffff16905090565b60006009905090565b600080821415610e9957610e92600f60146114aa90919063ffffffff16565b9050610f8e565b6001821415610ec957610ec26014806007610eb49190611d8d565b61125d90919063ffffffff16565b9050610f8e565b6002821415610ee75760146007610ee09190611d8d565b9050610f8e565b6003821415610f055760146007610efe9190611d8d565b9050610f8e565b6004821415610f235760146007610f1c9190611d8d565b9050610f8e565b6005821415610f41576014601e610f3a9190611d8d565b9050610f8e565b6006821415610f5f576014601e610f589190611d8d565b9050610f8e565b6007821415610f7d576014601e610f769190611d8d565b9050610f8e565b6014601e610f8b9190611d8d565b90505b919050565b60036020528060005260406000206000915090505481565b610fb36114c0565b73ffffffffffffffffffffffffffffffffffffffff16610fd1610e41565b73ffffffffffffffffffffffffffffffffffffffff1614611027576040517f08c379a000000000000000000000000000000000000000000000000000000000815260040161101e90611c25565b60405180910390fd5b611032838383611593565b60006002600085815260200190815260200160002054905061105d828261127390919063ffffffff16565b6002600086815260200190815260200160002081905550837f696e7d567fdcab2406e8de617caf46be048c7600c884e97b9f050754ffa27143836040516110a49190611c85565b60405180910390a26110b78484846115dc565b50505050565b6000600a6000838152602001908152602001600020549050919050565b60006110e76008546116e1565b905090565b6014601e6110fa9190611d8d565b81565b60075481565b61110b6114c0565b73ffffffffffffffffffffffffffffffffffffffff16611129610e41565b73ffffffffffffffffffffffffffffffffffffffff161461117f576040517f08c379a000000000000000000000000000000000000000000000000000000000815260040161117690611c25565b60405180910390fd5b600073ffffffffffffffffffffffffffffffffffffffff168173ffffffffffffffffffffffffffffffffffffffff1614156111ef576040517f08c379a00000000000000000000000000000000000000000000000000000000081526004016111e690611be5565b60405180910390fd5b6111f8816114cf565b50565b600061120d6112086110da565b6108b2565b905090565b601460076112209190611d8d565b81565b600061122e3361098b565b1561124257601436033560601c9050611251565b61124a611255565b9050611252565b5b90565b600033905090565b6000818361126b9190611de7565b905092915050565b600081836112819190611d37565b905092915050565b600080600b600085815260200190815260200160002060009054906101000a900473ffffffffffffffffffffffffffffffffffffffff1690506112ca6114c0565b73ffffffffffffffffffffffffffffffffffffffff168173ffffffffffffffffffffffffffffffffffffffff1614611337576040517f08c379a000000000000000000000000000000000000000000000000000000000815260040161132e90611c65565b60405180910390fd5b6000611342856110bd565b905083811015611387576040517f08c379a000000000000000000000000000000000000000000000000000000000815260040161137e90611c05565b60405180910390fd5b6113ad84600a60008881526020019081526020016000205461125d90919063ffffffff16565b600a600087815260200190815260200160002081905550600960009054906101000a900473ffffffffffffffffffffffffffffffffffffffff1673ffffffffffffffffffffffffffffffffffffffff1663a9059cbb83866040518363ffffffff1660e01b8152600401611421929190611ba1565b602060405180830381600087803b15801561143b57600080fd5b505af115801561144f573d6000803e3d6000fd5b505050506040513d601f19601f8201168201806040525081019061147391906118c7565b5060026000868152602001908152602001600020546003600087815260200190815260200160002081905550819250505092915050565b600081836114b89190611d8d565b905092915050565b60006114ca611223565b905090565b60008060009054906101000a900473ffffffffffffffffffffffffffffffffffffffff169050816000806101000a81548173ffffffffffffffffffffffffffffffffffffffff021916908373ffffffffffffffffffffffffffffffffffffffff1602179055508173ffffffffffffffffffffffffffffffffffffffff168173ffffffffffffffffffffffffffffffffffffffff167f8be0079c531659141344cd1fd0a4f28419497f9722a3daafe3b4186f6b6457e060405160405180910390a35050565b60008114156115d7576040517f08c379a00000000000000000000000000000000000000000000000000000000081526004016115ce90611c45565b60405180910390fd5b505050565b600073ffffffffffffffffffffffffffffffffffffffff16600b600085815260200190815260200160002060009054906101000a900473ffffffffffffffffffffffffffffffffffffffff1673ffffffffffffffffffffffffffffffffffffffff1614156116b35781600b600085815260200190815260200160002060006101000a81548173ffffffffffffffffffffffffffffffffffffffff021916908373ffffffffffffffffffffffffffffffffffffffff1602179055506116ac600160085461127390919063ffffffff16565b6008819055505b6116bb61068c565b6116c58382610e06565b600a600085815260200190815260200160002081905550505050565b6000806116ed836109e5565b905060006116f9610de3565b9050808211611708578061170a565b815b92505050919050565b600061172661172184611cfa565b611cc9565b9050808382526020820190508285606086028201111561174557600080fd5b60005b85811015611775578161175b88826117d3565b845260208401935060608301925050600181019050611748565b5050509392505050565b60008135905061178e81611f0a565b92915050565b600082601f8301126117a557600080fd5b81356117b5848260208601611713565b91505092915050565b6000815190506117cd81611f21565b92915050565b6000606082840312156117e557600080fd5b6117ef6060611cc9565b905060006117ff84828501611833565b60008301525060206118138482850161177f565b602083015250604061182784828501611833565b60408301525092915050565b60008135905061184281611f38565b92915050565b60008151905061185781611f38565b92915050565b60006020828403121561186f57600080fd5b600061187d8482850161177f565b91505092915050565b60006020828403121561189857600080fd5b600082013567ffffffffffffffff8111156118b257600080fd5b6118be84828501611794565b91505092915050565b6000602082840312156118d957600080fd5b60006118e7848285016117be565b91505092915050565b60006020828403121561190257600080fd5b600061191084828501611833565b91505092915050565b60006020828403121561192b57600080fd5b600061193984828501611848565b91505092915050565b60008060006060848603121561195757600080fd5b600061196586828701611833565b93505060206119768682870161177f565b925050604061198786828701611833565b9150509250925092565b600080604083850312156119a457600080fd5b60006119b285828601611833565b92505060206119c385828601611833565b9150509250929050565b6119d681611e1b565b82525050565b6119e581611e2d565b82525050565b60006119f8602683611d26565b91507f4f776e61626c653a206e6577206f776e657220697320746865207a65726f206160008301527f64647265737300000000000000000000000000000000000000000000000000006020830152604082019050919050565b6000611a5e602683611d26565b91507f52657761726456313a2070656e64696e6720726577617264206973206e6f742060008301527f656e6f75676800000000000000000000000000000000000000000000000000006020830152604082019050919050565b6000611ac4602083611d26565b91507f4f776e61626c653a2063616c6c6572206973206e6f7420746865206f776e65726000830152602082019050919050565b6000611b04601a83611d26565b91507f52657761726456313a2066656564207a65726f20616d6f756e740000000000006000830152602082019050919050565b6000611b44602083611d26565b91507f52657761726456313a20746f6b656e206f776e6572206973206e6f7420796f756000830152602082019050919050565b611b8081611e59565b82525050565b6000602082019050611b9b60008301846119cd565b92915050565b6000604082019050611bb660008301856119cd565b611bc36020830184611b77565b9392505050565b6000602082019050611bdf60008301846119dc565b92915050565b60006020820190508181036000830152611bfe816119eb565b9050919050565b60006020820190508181036000830152611c1e81611a51565b9050919050565b60006020820190508181036000830152611c3e81611ab7565b9050919050565b60006020820190508181036000830152611c5e81611af7565b9050919050565b60006020820190508181036000830152611c7e81611b37565b9050919050565b6000602082019050611c9a6000830184611b77565b92915050565b6000604082019050611cb56000830185611b77565b611cc26020830184611b77565b9392505050565b6000604051905081810181811067ffffffffffffffff82111715611cf057611cef611edb565b5b8060405250919050565b600067ffffffffffffffff821115611d1557611d14611edb565b5b602082029050602081019050919050565b600082825260208201905092915050565b6000611d4282611e59565b9150611d4d83611e59565b9250827fffffffffffffffffffffffffffffffffffffffffffffffffffffffffffffffff03821115611d8257611d81611eac565b5b828201905092915050565b6000611d9882611e59565b9150611da383611e59565b9250817fffffffffffffffffffffffffffffffffffffffffffffffffffffffffffffffff0483118215151615611ddc57611ddb611eac565b5b828202905092915050565b6000611df282611e59565b9150611dfd83611e59565b925082821015611e1057611e0f611eac565b5b828203905092915050565b6000611e2682611e39565b9050919050565b60008115159050919050565b600073ffffffffffffffffffffffffffffffffffffffff82169050919050565b6000819050919050565b6000611e6e82611e59565b91507fffffffffffffffffffffffffffffffffffffffffffffffffffffffffffffffff821415611ea157611ea0611eac565b5b600182019050919050565b7f4e487b7100000000000000000000000000000000000000000000000000000000600052601160045260246000fd5b7f4e487b7100000000000000000000000000000000000000000000000000000000600052604160045260246000fd5b611f1381611e1b565b8114611f1e57600080fd5b50565b611f2a81611e2d565b8114611f3557600080fd5b50565b611f4181611e59565b8114611f4c57600080fd5b5056fea2646970667358221220ff2fa64f4e2afb7a4561756ecadcb83b2d1f660a53db607891b2a49645cfa6bf64736f6c63430008000033",
  "immutableReferences": {},
  "source": "// SPDX-License-Identifier: GPL3.0\npragma solidity ^0.8.0;\n\nimport \"@openzeppelin/contracts/utils/math/SafeMath.sol\";\nimport \"./RewardV1Template.sol\";\n\ncontract RewardV1ForTest is RewardV1Template {\n    using SafeMath for uint256;\n\n    uint256 public initialRewardPerAmount = 20 * 10**18;\n    uint256 public constant BLOCKS_PER_DAY = 60 / 3; // 1 minute\n    uint256 public constant BLOCKS_PER_WEEK = 7 * BLOCKS_PER_DAY;\n    uint256 public constant BLOCKS_PER_MONTH = 30 * BLOCKS_PER_DAY;\n\n    constructor(address _good, address trustedForwarder)\n        RewardV1Template(_good, trustedForwarder) {\n    }\n\n    function maxPhase() public override pure returns(uint256) {\n        return 9;\n    }\n\n    function avatarNumPhase(uint256 avatarNum) public override pure returns(uint256) {\n        if (avatarNum <= 1) {\n            return 0;\n        } else if (avatarNum <= 2) {\n            return 1;\n        } else if (avatarNum <= 3) {\n            return 2;\n        } else if (avatarNum <= 4) {\n            return 3;\n        } else if (avatarNum <= 5) {\n            return 4;\n        } else if (avatarNum <= 6) {\n            return 5;\n        } else if (avatarNum <= 10) {\n            return 6;\n        } else if (avatarNum <= 20) {\n            return 7;\n        } else if (avatarNum <= 30) {\n            return 8;\n        } else {\n            return maxPhase();\n        }\n    }\n\n    function blocksOfCurrPhase() public override view returns(uint256) {\n        return blocksGivenPhase(lastBlockPhase);\n    }\n\n    function blocksGivenPhase(uint256 _phase) public override pure returns(uint256) {\n        if (_phase == 0) {\n            return  BLOCKS_PER_DAY.mul(15);\n        } else if (_phase == 1) {\n            return BLOCKS_PER_WEEK.sub(BLOCKS_PER_DAY);\n        } else if (_phase == 2) {\n            return BLOCKS_PER_WEEK;\n        } else if (_phase == 3) {\n            return BLOCKS_PER_WEEK;\n        } else if (_phase == 4) {\n            return BLOCKS_PER_WEEK;\n        } else if (_phase == 5) {\n            return BLOCKS_PER_MONTH;\n        } else if (_phase == 6) {\n            return BLOCKS_PER_MONTH;\n        } else if (_phase == 7) {\n            return BLOCKS_PER_MONTH;\n        } else {\n            return BLOCKS_PER_MONTH;\n        }\n\n        // if (_phase == 0) {\n        //     return  BLOCKS_PER_DAY.mul(3);\n        // } else if (_phase == 1) {\n        //     return BLOCKS_PER_DAY.mul(4);\n        // } else if (_phase == 2) {\n        //     return BLOCKS_PER_DAY.mul(5);\n        // } else if (_phase == 3) {\n        //     return BLOCKS_PER_WEEK;\n        // } else {\n        //     return BLOCKS_PER_WEEK.mul(2);\n        // }\n    }\n\n    function _currReward(uint256 _currPhase) public override view returns(uint256) {\n        uint256 _base = 1*10**18;\n        if (_currPhase == 0) {\n            return initialRewardPerAmount;\n        } else if (_currPhase == 1) {\n            return _base.mul(16);\n        } else if (_currPhase == 2) {\n            return _base.mul(12);\n        } else if (_currPhase == 3) {\n            return _base.mul(8);\n        } else if (_currPhase == 4) {\n            return _base.mul(4);\n        } else {\n            return _base.mul(2);\n        }\n    }\n\n    function estimateReward(uint256 tokenId, uint256 amount) public override view returns(uint256) {\n        uint256 _oldReward = pendingReward[tokenId];\n        // 1 record equals 1 reward.\n        return _oldReward.add(amount);\n    }\n}",
  "sourcePath": "/Users/thestar/Development/go/src/work/goodata/good-sleep-contracts/contracts/RewardV1ForTest.sol",
  "compiler": {
    "name": "solc",
    "version": "0.8.0+commit.c7dfd78e.Emscripten.clang"
  },
  "schemaVersion": "3.4.1",
  "updatedAt": "2021-12-08T08:20:51.100Z",
  "networkType": "ethereum",
  "devdoc": {
    "kind": "dev",
    "methods": {
      "_currReward(uint256)": {
        "details": "need to implement in child contract."
      },
      "avatarNumPhase(uint256)": {
        "details": "need to implement in child contract."
      },
      "blocksGivenPhase(uint256)": {
        "details": "need to implement in child contract."
      },
      "maxBlockPhase()": {
        "details": "need to implement in child contract. Its range is from 0 to maxBlockPhase, excluding maxBlockPhase."
      },
      "maxPhase()": {
        "details": "need to implement in child contract."
      },
      "owner()": {
        "details": "Returns the address of the current owner."
      },
      "phase()": {
        "details": "Increase phase when the number of avatar exceeds range or      time exceeds 1 week in that phase"
      },
      "renounceOwnership()": {
        "details": "Leaves the contract without owner. It will not be possible to call `onlyOwner` functions anymore. Can only be called by the current owner. NOTE: Renouncing ownership will leave the contract without an owner, thereby removing any functionality that is only available to the owner."
      },
      "rewardSurplus()": {
        "details": "need to implement in child contract."
      },
      "transferOwnership(address)": {
        "details": "Transfers ownership of the contract to a new account (`newOwner`). Can only be called by the current owner."
      }
    },
    "version": 1
  },
  "userdoc": {
    "kind": "user",
    "methods": {},
    "version": 1
  }
}