{
  "contractName": "RewardV1",
  "abi": [
    {
      "inputs": [
        {
          "internalType": "address",
          "name": "_good",
          "type": "address"
        },
        {
          "internalType": "address",
          "name": "trustedForwarder",
          "type": "address"
        }
      ],
      "stateMutability": "nonpayable",
      "type": "constructor"
    },
    {
      "anonymous": false,
      "inputs": [
        {
          "indexed": false,
          "internalType": "uint256",
          "name": "lastBlock",
          "type": "uint256"
        },
        {
          "indexed": false,
          "internalType": "uint256",
          "name": "phase",
          "type": "uint256"
        }
      ],
      "name": "BlockPhaseUpdated",
      "type": "event"
    },
    {
      "anonymous": false,
      "inputs": [
        {
          "indexed": true,
          "internalType": "uint256",
          "name": "tokenId",
          "type": "uint256"
        },
        {
          "indexed": false,
          "internalType": "uint256",
          "name": "amount",
          "type": "uint256"
        }
      ],
      "name": "Feeding",
      "type": "event"
    },
    {
      "anonymous": false,
      "inputs": [
        {
          "indexed": true,
          "internalType": "uint256",
          "name": "oldMultiplier",
          "type": "uint256"
        },
        {
          "indexed": true,
          "internalType": "uint256",
          "name": "newMultiplier",
          "type": "uint256"
        }
      ],
      "name": "MultiplierUpdated",
      "type": "event"
    },
    {
      "anonymous": false,
      "inputs": [
        {
          "indexed": true,
          "internalType": "address",
          "name": "previousOwner",
          "type": "address"
        },
        {
          "indexed": true,
          "internalType": "address",
          "name": "newOwner",
          "type": "address"
        }
      ],
      "name": "OwnershipTransferred",
      "type": "event"
    },
    {
      "anonymous": false,
      "inputs": [
        {
          "indexed": true,
          "internalType": "uint256",
          "name": "tokenId",
          "type": "uint256"
        },
        {
          "indexed": true,
          "internalType": "address",
          "name": "to",
          "type": "address"
        },
        {
          "indexed": false,
          "internalType": "uint256",
          "name": "amount",
          "type": "uint256"
        }
      ],
      "name": "Withdrawal",
      "type": "event"
    },
    {
      "inputs": [],
      "name": "BLOCKS_PER_DAY",
      "outputs": [
        {
          "internalType": "uint256",
          "name": "",
          "type": "uint256"
        }
      ],
      "stateMutability": "view",
      "type": "function"
    },
    {
      "inputs": [],
      "name": "BLOCKS_PER_MONTH",
      "outputs": [
        {
          "internalType": "uint256",
          "name": "",
          "type": "uint256"
        }
      ],
      "stateMutability": "view",
      "type": "function"
    },
    {
      "inputs": [],
      "name": "BLOCKS_PER_WEEK",
      "outputs": [
        {
          "internalType": "uint256",
          "name": "",
          "type": "uint256"
        }
      ],
      "stateMutability": "view",
      "type": "function"
    },
    {
      "inputs": [],
      "name": "avatarCount",
      "outputs": [
        {
          "internalType": "uint256",
          "name": "",
          "type": "uint256"
        }
      ],
      "stateMutability": "view",
      "type": "function"
    },
    {
      "inputs": [
        {
          "internalType": "uint256",
          "name": "",
          "type": "uint256"
        }
      ],
      "name": "avatarOwner",
      "outputs": [
        {
          "internalType": "address",
          "name": "",
          "type": "address"
        }
      ],
      "stateMutability": "view",
      "type": "function"
    },
    {
      "inputs": [
        {
          "components": [
            {
              "internalType": "uint256",
              "name": "tokenId",
              "type": "uint256"
            },
            {
              "internalType": "address",
              "name": "owner",
              "type": "address"
            },
            {
              "internalType": "uint256",
              "name": "amount",
              "type": "uint256"
            }
          ],
          "internalType": "struct IReward.FeedParam[]",
          "name": "params",
          "type": "tuple[]"
        }
      ],
      "name": "batchFeed",
      "outputs": [],
      "stateMutability": "nonpayable",
      "type": "function"
    },
    {
      "inputs": [],
      "name": "blockPhase",
      "outputs": [
        {
          "internalType": "uint256",
          "name": "",
          "type": "uint256"
        }
      ],
      "stateMutability": "view",
      "type": "function"
    },
    {
      "inputs": [],
      "name": "currReward",
      "outputs": [
        {
          "internalType": "uint256",
          "name": "",
          "type": "uint256"
        }
      ],
      "stateMutability": "view",
      "type": "function"
    },
    {
      "inputs": [
        {
          "internalType": "uint256",
          "name": "tokenId",
          "type": "uint256"
        },
        {
          "internalType": "address",
          "name": "owner",
          "type": "address"
        },
        {
          "internalType": "uint256",
          "name": "amount",
          "type": "uint256"
        }
      ],
      "name": "feed",
      "outputs": [],
      "stateMutability": "nonpayable",
      "type": "function"
    },
    {
      "inputs": [],
      "name": "increasedBlockPhase",
      "outputs": [
        {
          "internalType": "uint256",
          "name": "",
          "type": "uint256"
        }
      ],
      "stateMutability": "view",
      "type": "function"
    },
    {
      "inputs": [],
      "name": "initialRewardPerAmount",
      "outputs": [
        {
          "internalType": "uint256",
          "name": "",
          "type": "uint256"
        }
      ],
      "stateMutability": "view",
      "type": "function"
    },
    {
      "inputs": [
        {
          "internalType": "address",
          "name": "forwarder",
          "type": "address"
        }
      ],
      "name": "isTrustedForwarder",
      "outputs": [
        {
          "internalType": "bool",
          "name": "",
          "type": "bool"
        }
      ],
      "stateMutability": "view",
      "type": "function"
    },
    {
      "inputs": [],
      "name": "lastBlock",
      "outputs": [
        {
          "internalType": "uint256",
          "name": "",
          "type": "uint256"
        }
      ],
      "stateMutability": "view",
      "type": "function"
    },
    {
      "inputs": [],
      "name": "lastBlockPhase",
      "outputs": [
        {
          "internalType": "uint256",
          "name": "",
          "type": "uint256"
        }
      ],
      "stateMutability": "view",
      "type": "function"
    },
    {
      "inputs": [
        {
          "internalType": "uint256",
          "name": "",
          "type": "uint256"
        }
      ],
      "name": "lastRewardRecords",
      "outputs": [
        {
          "internalType": "uint256",
          "name": "",
          "type": "uint256"
        }
      ],
      "stateMutability": "view",
      "type": "function"
    },
    {
      "inputs": [],
      "name": "maxBlockPhase",
      "outputs": [
        {
          "internalType": "uint256",
          "name": "",
          "type": "uint256"
        }
      ],
      "stateMutability": "pure",
      "type": "function"
    },
    {
      "inputs": [],
      "name": "multiplier",
      "outputs": [
        {
          "internalType": "uint256",
          "name": "",
          "type": "uint256"
        }
      ],
      "stateMutability": "view",
      "type": "function"
    },
    {
      "inputs": [],
      "name": "owner",
      "outputs": [
        {
          "internalType": "address",
          "name": "",
          "type": "address"
        }
      ],
      "stateMutability": "view",
      "type": "function"
    },
    {
      "inputs": [],
      "name": "phase",
      "outputs": [
        {
          "internalType": "uint256",
          "name": "",
          "type": "uint256"
        }
      ],
      "stateMutability": "view",
      "type": "function"
    },
    {
      "inputs": [
        {
          "internalType": "uint256",
          "name": "",
          "type": "uint256"
        }
      ],
      "name": "records",
      "outputs": [
        {
          "internalType": "uint256",
          "name": "",
          "type": "uint256"
        }
      ],
      "stateMutability": "view",
      "type": "function"
    },
    {
      "inputs": [],
      "name": "renounceOwnership",
      "outputs": [],
      "stateMutability": "nonpayable",
      "type": "function"
    },
    {
      "inputs": [
        {
          "internalType": "uint256",
          "name": "tokenId",
          "type": "uint256"
        }
      ],
      "name": "reward",
      "outputs": [
        {
          "internalType": "uint256",
          "name": "",
          "type": "uint256"
        }
      ],
      "stateMutability": "view",
      "type": "function"
    },
    {
      "inputs": [],
      "name": "rewardSurplus",
      "outputs": [
        {
          "internalType": "uint256",
          "name": "",
          "type": "uint256"
        }
      ],
      "stateMutability": "view",
      "type": "function"
    },
    {
      "inputs": [
        {
          "internalType": "uint256",
          "name": "_multiplier",
          "type": "uint256"
        }
      ],
      "name": "setMultiplier",
      "outputs": [],
      "stateMutability": "nonpayable",
      "type": "function"
    },
    {
      "inputs": [],
      "name": "startBlock",
      "outputs": [
        {
          "internalType": "uint256",
          "name": "",
          "type": "uint256"
        }
      ],
      "stateMutability": "view",
      "type": "function"
    },
    {
      "inputs": [
        {
          "internalType": "address",
          "name": "newOwner",
          "type": "address"
        }
      ],
      "name": "transferOwnership",
      "outputs": [],
      "stateMutability": "nonpayable",
      "type": "function"
    },
    {
      "inputs": [],
      "name": "updateBlockPhase",
      "outputs": [],
      "stateMutability": "nonpayable",
      "type": "function"
    },
    {
      "inputs": [],
      "name": "updatePhase",
      "outputs": [],
      "stateMutability": "nonpayable",
      "type": "function"
    },
    {
      "inputs": [
        {
          "internalType": "uint256",
          "name": "tokenId",
          "type": "uint256"
        },
        {
          "internalType": "uint256",
          "name": "amount",
          "type": "uint256"
        }
      ],
      "name": "withdraw",
      "outputs": [],
      "stateMutability": "nonpayable",
      "type": "function"
    },
    {
      "inputs": [],
      "name": "maxPhase",
      "outputs": [
        {
          "internalType": "uint256",
          "name": "",
          "type": "uint256"
        }
      ],
      "stateMutability": "pure",
      "type": "function"
    },
    {
      "inputs": [
        {
          "internalType": "uint256",
          "name": "avatarNum",
          "type": "uint256"
        }
      ],
      "name": "avatarNumPhase",
      "outputs": [
        {
          "internalType": "uint256",
          "name": "",
          "type": "uint256"
        }
      ],
      "stateMutability": "pure",
      "type": "function"
    },
    {
      "inputs": [],
      "name": "blocksOfCurrPhase",
      "outputs": [
        {
          "internalType": "uint256",
          "name": "",
          "type": "uint256"
        }
      ],
      "stateMutability": "view",
      "type": "function"
    },
    {
      "inputs": [
        {
          "internalType": "uint256",
          "name": "_phase",
          "type": "uint256"
        }
      ],
      "name": "blocksGivenPhase",
      "outputs": [
        {
          "internalType": "uint256",
          "name": "",
          "type": "uint256"
        }
      ],
      "stateMutability": "pure",
      "type": "function"
    },
    {
      "inputs": [
        {
          "internalType": "uint256",
          "name": "_currPhase",
          "type": "uint256"
        }
      ],
      "name": "_currReward",
      "outputs": [
        {
          "internalType": "uint256",
          "name": "",
          "type": "uint256"
        }
      ],
      "stateMutability": "view",
      "type": "function"
    },
    {
      "inputs": [
        {
          "internalType": "uint256",
          "name": "tokenId",
          "type": "uint256"
        },
        {
          "internalType": "uint256",
          "name": "amount",
          "type": "uint256"
        }
      ],
      "name": "estimateReward",
      "outputs": [
        {
          "internalType": "uint256",
          "name": "",
          "type": "uint256"
        }
      ],
      "stateMutability": "view",
      "type": "function"
    }
  ],
  "bytecode": "0x6080604052670de0b6b3a76400006004556801158e460913d00000600c553480156200002a57600080fd5b50604051620022ef380380620022ef8339818101604052810190620000509190620002c5565b8181808062000074620000686200012260201b60201c565b6200013e60201b60201c565b80600160006101000a81548173ffffffffffffffffffffffffffffffffffffffff021916908373ffffffffffffffffffffffffffffffffffffffff1602179055505050436005819055506005546006819055504360058190555060055460068190555081600960006101000a81548173ffffffffffffffffffffffffffffffffffffffff021916908373ffffffffffffffffffffffffffffffffffffffff1602179055505050505062000354565b6000620001396200020260201b620012291760201c565b905090565b60008060009054906101000a900473ffffffffffffffffffffffffffffffffffffffff169050816000806101000a81548173ffffffffffffffffffffffffffffffffffffffff021916908373ffffffffffffffffffffffffffffffffffffffff1602179055508173ffffffffffffffffffffffffffffffffffffffff168173ffffffffffffffffffffffffffffffffffffffff167f8be0079c531659141344cd1fd0a4f28419497f9722a3daafe3b4186f6b6457e060405160405180910390a35050565b600062000215336200024c60201b60201c565b156200022b57601436033560601c905062000248565b62000240620002a660201b6200125b1760201c565b905062000249565b5b90565b6000600160009054906101000a900473ffffffffffffffffffffffffffffffffffffffff1673ffffffffffffffffffffffffffffffffffffffff168273ffffffffffffffffffffffffffffffffffffffff16149050919050565b600033905090565b600081519050620002bf816200033a565b92915050565b60008060408385031215620002d957600080fd5b6000620002e985828601620002ae565b9250506020620002fc85828601620002ae565b9150509250929050565b600062000313826200031a565b9050919050565b600073ffffffffffffffffffffffffffffffffffffffff82169050919050565b620003458162000306565b81146200035157600080fd5b50565b611f8b80620003646000396000f3fe608060405234801561001057600080fd5b50600436106102115760003560e01c80636fc6ecd711610125578063950c05f2116100ad578063c409084a1161007c578063c409084a146105f8578063d85dcb9314610616578063f2fde38b14610634578063f92cf2b814610650578063fc47e2091461066e57610211565b8063950c05f21461055e578063a96a30411461058e578063a9fb763c146105aa578063b1c9fe6e146105da57610211565b80637e5f43ff116100f45780637e5f43ff146104a4578063806b984f146104d45780638da5cb5b146104f25780638df5e6301461051057806393bc85661461052e57610211565b80636fc6ecd7146104405780637141493e1461045e578063715018a61461047c578063737ff0941461048657610211565b8063441a3e70116101a85780635b31cf09116101775780635b31cf09146103b05780635cbf824f146103e057806363adc5f9146103ea578063641579a6146104065780636bb987fe1461042257610211565b8063441a3e7014610316578063454404bf1461033257806348cd4cb114610362578063572b6c051461038057610211565b806312ecf0af116101e457806312ecf0af1461027a5780631b3ed722146102aa57806329b5ffb0146102c857806334461067146102e657610211565b8063034b9aae1461021657806306d9481d1461022057806309328be21461023e5780630de13a0f1461025c575b600080fd5b61021e61068c565b005b610228610705565b6040516102359190611c8b565b60405180910390f35b6102466107e4565b6040516102539190611c8b565b60405180910390f35b6102646107ea565b6040516102719190611c8b565b60405180910390f35b610294600480360381019061028f91906118f6565b6107f0565b6040516102a19190611b8c565b60405180910390f35b6102b2610823565b6040516102bf9190611c8b565b60405180910390f35b6102d0610829565b6040516102dd9190611c8b565b60405180910390f35b61030060048036038101906102fb91906118f6565b610838565b60405161030d9190611c8b565b60405180910390f35b610330600480360381019061032b9190611997565b610850565b005b61034c600480360381019061034791906118f6565b6108b2565b6040516103599190611c8b565b60405180910390f35b61036a610985565b6040516103779190611c8b565b60405180910390f35b61039a60048036038101906103959190611863565b61098b565b6040516103a79190611bd0565b60405180910390f35b6103ca60048036038101906103c591906118f6565b6109e5565b6040516103d79190611c8b565b60405180910390f35b6103e8610a9d565b005b61040460048036038101906103ff919061188c565b610b63565b005b610420600480360381019061041b91906118f6565b610c5f565b005b61042a610c9f565b6040516104379190611c8b565b60405180910390f35b610448610ca5565b6040516104559190611c8b565b60405180910390f35b610466610d57565b6040516104739190611c8b565b60405180910390f35b610484610d69565b005b61048e610df1565b60405161049b9190611c8b565b60405180910390f35b6104be60048036038101906104b99190611997565b610e14565b6040516104cb9190611c8b565b60405180910390f35b6104dc610e49565b6040516104e99190611c8b565b60405180910390f35b6104fa610e4f565b6040516105079190611b8c565b60405180910390f35b610518610e78565b6040516105259190611c8b565b60405180910390f35b610548600480360381019061054391906118f6565b610e81565b6040516105559190611c8b565b60405180910390f35b610578600480360381019061057391906118f6565b610f97565b6040516105859190611c8b565b60405180910390f35b6105a860048036038101906105a39190611948565b610faf565b005b6105c460048036038101906105bf91906118f6565b6110c1565b6040516105d19190611c8b565b60405180910390f35b6105e26110de565b6040516105ef9190611c8b565b60405180910390f35b6106006110f0565b60405161060d9190611c8b565b60405180910390f35b61061e611102565b60405161062b9190611c8b565b60405180910390f35b61064e60048036038101906106499190611863565b611108565b005b610658611200565b6040516106659190611c8b565b60405180910390f35b610676611217565b6040516106839190611c8b565b60405180910390f35b610694610a9d565b60006106a16008546109e5565b905060006106ad610df1565b9050808211156107015743600681905550816007819055507fba442b0557701fc97a8bdce0e8bdfcf4f526c381d6e728aee08113b4114aaeff436007546040516106f8929190611ca6565b60405180910390a15b5050565b600061070f610829565b6007541061072057600090506107e1565b60006107376006544361126390919063ffffffff16565b9050600060075490505b600082118015610759575061075581610e81565b8210155b156107965761077961076a82610e81565b8361126390919063ffffffff16565b915061078f60018261127990919063ffffffff16565b9050610741565b61079e610829565b8111156107c6576107c16007546107b3610829565b61126390919063ffffffff16565b6107dc565b6107db6007548261126390919063ffffffff16565b5b925050505b90565b60085481565b600c5481565b600b6020528060005260406000206000915054906101000a900473ffffffffffffffffffffffffffffffffffffffff1681565b60045481565b6000610833610e78565b905090565b60026020528060005260406000206000915090505481565b600061085c838361128f565b90508073ffffffffffffffffffffffffffffffffffffffff16837f37e8063b72a944a76de602f32b82fd8c2a1c6f99564c727ffaf913c7762cd420846040516108a59190611c8b565b60405180910390a3505050565b600080670de0b6b3a7640000905060008314156108d457600c54915050610980565b60018314156108f9576108f16010826114b090919063ffffffff16565b915050610980565b600283141561091e57610916600c826114b090919063ffffffff16565b915050610980565b60038314156109435761093b6008826114b090919063ffffffff16565b915050610980565b6004831415610968576109606004826114b090919063ffffffff16565b915050610980565b61097c6002826114b090919063ffffffff16565b9150505b919050565b60055481565b6000600160009054906101000a900473ffffffffffffffffffffffffffffffffffffffff1673ffffffffffffffffffffffffffffffffffffffff168273ffffffffffffffffffffffffffffffffffffffff16149050919050565b60006103e882116109f95760009050610a98565b6113888211610a0b5760019050610a98565b613a988211610a1d5760029050610a98565b6175308211610a2f5760039050610a98565b61c3508211610a415760049050610a98565b620186a08211610a545760059050610a98565b62030d408211610a675760069050610a98565b620557308211610a7a5760079050610a98565b6207a1208211610a8d5760089050610a98565b610a95610e78565b90505b919050565b6000610aa7610705565b905060018110610b605760005b81811015610b0657610aed610adc610ad78360075461127990919063ffffffff16565b610e81565b60065461127990919063ffffffff16565b6006819055508080610afe90611e69565b915050610ab4565b50610b1c8160075461127990919063ffffffff16565b6007819055507fba442b0557701fc97a8bdce0e8bdfcf4f526c381d6e728aee08113b4114aaeff600654600754604051610b57929190611ca6565b60405180910390a15b50565b610b6b6114c6565b73ffffffffffffffffffffffffffffffffffffffff16610b89610e4f565b73ffffffffffffffffffffffffffffffffffffffff1614610bdf576040517f08c379a0000000000000000000000000000000000000000000000000000000008152600401610bd690611c2b565b60405180910390fd5b60005b8151811015610c5b576000828281518110610c26577f4e487b7100000000000000000000000000000000000000000000000000000000600052603260045260246000fd5b60200260200101519050610c47816000015182602001518360400151610faf565b508080610c5390611e69565b915050610be2565b5050565b600060045490508160048190555081817f3c02d7351af6053255d947ce3f7b457726360edc933c441e9b1ad724f8ce5c7f60405160405180910390a35050565b61708081565b6000600960009054906101000a900473ffffffffffffffffffffffffffffffffffffffff1673ffffffffffffffffffffffffffffffffffffffff166370a08231306040518263ffffffff1660e01b8152600401610d029190611b8c565b60206040518083038186803b158015610d1a57600080fd5b505afa158015610d2e573d6000803e3d6000fd5b505050506040513d601f19601f82011682018060405250810190610d52919061191f565b905090565b6000610d64600754610e81565b905090565b610d716114c6565b73ffffffffffffffffffffffffffffffffffffffff16610d8f610e4f565b73ffffffffffffffffffffffffffffffffffffffff1614610de5576040517f08c379a0000000000000000000000000000000000000000000000000000000008152600401610ddc90611c2b565b60405180910390fd5b610def60006114d5565b565b6000610e0f610dfe610705565b60075461127990919063ffffffff16565b905090565b600080600a6000858152602001908152602001600020549050610e40838261127990919063ffffffff16565b91505092915050565b60065481565b60008060009054906101000a900473ffffffffffffffffffffffffffffffffffffffff16905090565b60006009905090565b600080821415610e95576170809050610f92565b6001821415610ec657610ebf617080806007610eb19190611d93565b61126390919063ffffffff16565b9050610f92565b6002821415610ee5576170806007610ede9190611d93565b9050610f92565b6003821415610f04576170806007610efd9190611d93565b9050610f92565b6004821415610f23576170806007610f1c9190611d93565b9050610f92565b6005821415610f4257617080601e610f3b9190611d93565b9050610f92565b6006821415610f6157617080601e610f5a9190611d93565b9050610f92565b6007821415610f8057617080601e610f799190611d93565b9050610f92565b617080601e610f8f9190611d93565b90505b919050565b60036020528060005260406000206000915090505481565b610fb76114c6565b73ffffffffffffffffffffffffffffffffffffffff16610fd5610e4f565b73ffffffffffffffffffffffffffffffffffffffff161461102b576040517f08c379a000000000000000000000000000000000000000000000000000000000815260040161102290611c2b565b60405180910390fd5b611036838383611599565b600060026000858152602001908152602001600020549050611061828261127990919063ffffffff16565b6002600086815260200190815260200160002081905550837f696e7d567fdcab2406e8de617caf46be048c7600c884e97b9f050754ffa27143836040516110a89190611c8b565b60405180910390a26110bb8484846115e2565b50505050565b6000600a6000838152602001908152602001600020549050919050565b60006110eb6008546116e7565b905090565b617080601e6110ff9190611d93565b81565b60075481565b6111106114c6565b73ffffffffffffffffffffffffffffffffffffffff1661112e610e4f565b73ffffffffffffffffffffffffffffffffffffffff1614611184576040517f08c379a000000000000000000000000000000000000000000000000000000000815260040161117b90611c2b565b60405180910390fd5b600073ffffffffffffffffffffffffffffffffffffffff168173ffffffffffffffffffffffffffffffffffffffff1614156111f4576040517f08c379a00000000000000000000000000000000000000000000000000000000081526004016111eb90611beb565b60405180910390fd5b6111fd816114d5565b50565b600061121261120d6110de565b6108b2565b905090565b61708060076112269190611d93565b81565b60006112343361098b565b1561124857601436033560601c9050611257565b61125061125b565b9050611258565b5b90565b600033905090565b600081836112719190611ded565b905092915050565b600081836112879190611d3d565b905092915050565b600080600b600085815260200190815260200160002060009054906101000a900473ffffffffffffffffffffffffffffffffffffffff1690506112d06114c6565b73ffffffffffffffffffffffffffffffffffffffff168173ffffffffffffffffffffffffffffffffffffffff161461133d576040517f08c379a000000000000000000000000000000000000000000000000000000000815260040161133490611c6b565b60405180910390fd5b6000611348856110c1565b90508381101561138d576040517f08c379a000000000000000000000000000000000000000000000000000000000815260040161138490611c0b565b60405180910390fd5b6113b384600a60008881526020019081526020016000205461126390919063ffffffff16565b600a600087815260200190815260200160002081905550600960009054906101000a900473ffffffffffffffffffffffffffffffffffffffff1673ffffffffffffffffffffffffffffffffffffffff1663a9059cbb83866040518363ffffffff1660e01b8152600401611427929190611ba7565b602060405180830381600087803b15801561144157600080fd5b505af1158015611455573d6000803e3d6000fd5b505050506040513d601f19601f8201168201806040525081019061147991906118cd565b5060026000868152602001908152602001600020546003600087815260200190815260200160002081905550819250505092915050565b600081836114be9190611d93565b905092915050565b60006114d0611229565b905090565b60008060009054906101000a900473ffffffffffffffffffffffffffffffffffffffff169050816000806101000a81548173ffffffffffffffffffffffffffffffffffffffff021916908373ffffffffffffffffffffffffffffffffffffffff1602179055508173ffffffffffffffffffffffffffffffffffffffff168173ffffffffffffffffffffffffffffffffffffffff167f8be0079c531659141344cd1fd0a4f28419497f9722a3daafe3b4186f6b6457e060405160405180910390a35050565b60008114156115dd576040517f08c379a00000000000000000000000000000000000000000000000000000000081526004016115d490611c4b565b60405180910390fd5b505050565b600073ffffffffffffffffffffffffffffffffffffffff16600b600085815260200190815260200160002060009054906101000a900473ffffffffffffffffffffffffffffffffffffffff1673ffffffffffffffffffffffffffffffffffffffff1614156116b95781600b600085815260200190815260200160002060006101000a81548173ffffffffffffffffffffffffffffffffffffffff021916908373ffffffffffffffffffffffffffffffffffffffff1602179055506116b2600160085461127990919063ffffffff16565b6008819055505b6116c161068c565b6116cb8382610e14565b600a600085815260200190815260200160002081905550505050565b6000806116f3836109e5565b905060006116ff610df1565b905080821161170e5780611710565b815b92505050919050565b600061172c61172784611d00565b611ccf565b9050808382526020820190508285606086028201111561174b57600080fd5b60005b8581101561177b578161176188826117d9565b84526020840193506060830192505060018101905061174e565b5050509392505050565b60008135905061179481611f10565b92915050565b600082601f8301126117ab57600080fd5b81356117bb848260208601611719565b91505092915050565b6000815190506117d381611f27565b92915050565b6000606082840312156117eb57600080fd5b6117f56060611ccf565b9050600061180584828501611839565b600083015250602061181984828501611785565b602083015250604061182d84828501611839565b60408301525092915050565b60008135905061184881611f3e565b92915050565b60008151905061185d81611f3e565b92915050565b60006020828403121561187557600080fd5b600061188384828501611785565b91505092915050565b60006020828403121561189e57600080fd5b600082013567ffffffffffffffff8111156118b857600080fd5b6118c48482850161179a565b91505092915050565b6000602082840312156118df57600080fd5b60006118ed848285016117c4565b91505092915050565b60006020828403121561190857600080fd5b600061191684828501611839565b91505092915050565b60006020828403121561193157600080fd5b600061193f8482850161184e565b91505092915050565b60008060006060848603121561195d57600080fd5b600061196b86828701611839565b935050602061197c86828701611785565b925050604061198d86828701611839565b9150509250925092565b600080604083850312156119aa57600080fd5b60006119b885828601611839565b92505060206119c985828601611839565b9150509250929050565b6119dc81611e21565b82525050565b6119eb81611e33565b82525050565b60006119fe602683611d2c565b91507f4f776e61626c653a206e6577206f776e657220697320746865207a65726f206160008301527f64647265737300000000000000000000000000000000000000000000000000006020830152604082019050919050565b6000611a64602683611d2c565b91507f52657761726456313a2070656e64696e6720726577617264206973206e6f742060008301527f656e6f75676800000000000000000000000000000000000000000000000000006020830152604082019050919050565b6000611aca602083611d2c565b91507f4f776e61626c653a2063616c6c6572206973206e6f7420746865206f776e65726000830152602082019050919050565b6000611b0a601a83611d2c565b91507f52657761726456313a2066656564207a65726f20616d6f756e740000000000006000830152602082019050919050565b6000611b4a602083611d2c565b91507f52657761726456313a20746f6b656e206f776e6572206973206e6f7420796f756000830152602082019050919050565b611b8681611e5f565b82525050565b6000602082019050611ba160008301846119d3565b92915050565b6000604082019050611bbc60008301856119d3565b611bc96020830184611b7d565b9392505050565b6000602082019050611be560008301846119e2565b92915050565b60006020820190508181036000830152611c04816119f1565b9050919050565b60006020820190508181036000830152611c2481611a57565b9050919050565b60006020820190508181036000830152611c4481611abd565b9050919050565b60006020820190508181036000830152611c6481611afd565b9050919050565b60006020820190508181036000830152611c8481611b3d565b9050919050565b6000602082019050611ca06000830184611b7d565b92915050565b6000604082019050611cbb6000830185611b7d565b611cc86020830184611b7d565b9392505050565b6000604051905081810181811067ffffffffffffffff82111715611cf657611cf5611ee1565b5b8060405250919050565b600067ffffffffffffffff821115611d1b57611d1a611ee1565b5b602082029050602081019050919050565b600082825260208201905092915050565b6000611d4882611e5f565b9150611d5383611e5f565b9250827fffffffffffffffffffffffffffffffffffffffffffffffffffffffffffffffff03821115611d8857611d87611eb2565b5b828201905092915050565b6000611d9e82611e5f565b9150611da983611e5f565b9250817fffffffffffffffffffffffffffffffffffffffffffffffffffffffffffffffff0483118215151615611de257611de1611eb2565b5b828202905092915050565b6000611df882611e5f565b9150611e0383611e5f565b925082821015611e1657611e15611eb2565b5b828203905092915050565b6000611e2c82611e3f565b9050919050565b60008115159050919050565b600073ffffffffffffffffffffffffffffffffffffffff82169050919050565b6000819050919050565b6000611e7482611e5f565b91507fffffffffffffffffffffffffffffffffffffffffffffffffffffffffffffffff821415611ea757611ea6611eb2565b5b600182019050919050565b7f4e487b7100000000000000000000000000000000000000000000000000000000600052601160045260246000fd5b7f4e487b7100000000000000000000000000000000000000000000000000000000600052604160045260246000fd5b611f1981611e21565b8114611f2457600080fd5b50565b611f3081611e33565b8114611f3b57600080fd5b50565b611f4781611e5f565b8114611f5257600080fd5b5056fea2646970667358221220412fd1c8fb60fdba4ecc67fa863decfc8bcba90ce65e508297e0b82a7cd2e4cd64736f6c63430008000033",
  "immutableReferences": {},
  "source": "// SPDX-License-Identifier: GPL3.0\npragma solidity ^0.8.0;\n\nimport \"@openzeppelin/contracts/utils/math/SafeMath.sol\";\nimport \"./RewardV1Template.sol\";\n\ncontract RewardV1 is RewardV1Template {\n    using SafeMath for uint256;\n\n    uint256 public initialRewardPerAmount = 20 * 10**18;\n    uint256 public constant BLOCKS_PER_DAY = 24 * 60 * 60 / 3;\n    uint256 public constant BLOCKS_PER_WEEK = 7 * BLOCKS_PER_DAY;\n    uint256 public constant BLOCKS_PER_MONTH = 30 * BLOCKS_PER_DAY;\n\n    constructor(address _good, address trustedForwarder)\n        RewardV1Template(_good, trustedForwarder) {\n    }\n\n    function maxPhase() public override pure returns(uint256) {\n        return 9;\n    }\n\n    function avatarNumPhase(uint256 avatarNum) public override pure returns(uint256) {\n        if (avatarNum <= 1000) { // 1k\n            return 0;\n        } else if (avatarNum <= 5000) { // 5k\n            return 1;\n        } else if (avatarNum <= 15000) { // 15k\n            return 2;\n        } else if (avatarNum <= 30000) { // 30k\n            return 3;\n        } else if (avatarNum <= 50000) { // 50k\n            return 4;\n        } else if (avatarNum <= 100000) { // 100k\n            return 5;\n        } else if (avatarNum <= 200000) { // 200k\n            return 6;\n        } else if (avatarNum <= 350000) { // 350k\n            return 7;\n        } else if (avatarNum <= 500000) { // 500k\n            return 8;\n        } else { // ~500k\n            return maxPhase(); // 9\n        }\n    }\n\n    function blocksOfCurrPhase() public override view returns(uint256) {\n        return blocksGivenPhase(lastBlockPhase);\n    }\n\n    function blocksGivenPhase(uint256 _phase) public override pure returns(uint256) {\n        if (_phase == 0) {\n            return  BLOCKS_PER_DAY;\n        } else if (_phase == 1) {\n            return BLOCKS_PER_WEEK.sub(BLOCKS_PER_DAY);\n        } else if (_phase == 2) {\n            return BLOCKS_PER_WEEK;\n        } else if (_phase == 3) {\n            return BLOCKS_PER_WEEK;\n        } else if (_phase == 4) {\n            return BLOCKS_PER_WEEK;\n        } else if (_phase == 5) {\n            return BLOCKS_PER_MONTH;\n        } else if (_phase == 6) {\n            return BLOCKS_PER_MONTH;\n        } else if (_phase == 7) {\n            return BLOCKS_PER_MONTH;\n        } else {\n            return BLOCKS_PER_MONTH;\n        }\n    }\n\n    function _currReward(uint256 _currPhase) public override view returns(uint256) {\n        uint256 _base = 1*10**18;\n        if (_currPhase == 0) {\n            return initialRewardPerAmount;\n        } else if (_currPhase == 1) {\n            return _base.mul(16);\n        } else if (_currPhase == 2) {\n            return _base.mul(12);\n        } else if (_currPhase == 3) {\n            return _base.mul(8);\n        } else if (_currPhase == 4) {\n            return _base.mul(4);\n        } else {\n            return _base.mul(2);\n        }\n    }\n\n    function estimateReward(uint256 tokenId, uint256 amount) public override view returns(uint256) {\n        uint256 _oldReward = pendingReward[tokenId];\n        // 1 record equals 1 reward.\n        return _oldReward.add(amount);\n    }\n}",
  "sourcePath": "/Users/thestar/Development/go/src/work/goodata/good-sleep-contracts/contracts/RewardV1.sol",
  "compiler": {
    "name": "solc",
    "version": "0.8.0+commit.c7dfd78e.Emscripten.clang"
  },
  "schemaVersion": "3.4.1",
  "updatedAt": "2021-12-09T07:21:45.295Z",
  "networkType": "ethereum",
  "devdoc": {
    "kind": "dev",
    "methods": {
      "_currReward(uint256)": {
        "details": "need to implement in child contract."
      },
      "avatarNumPhase(uint256)": {
        "details": "need to implement in child contract."
      },
      "blocksGivenPhase(uint256)": {
        "details": "need to implement in child contract."
      },
      "maxBlockPhase()": {
        "details": "need to implement in child contract. Its range is from 0 to maxBlockPhase, excluding maxBlockPhase."
      },
      "maxPhase()": {
        "details": "need to implement in child contract."
      },
      "owner()": {
        "details": "Returns the address of the current owner."
      },
      "phase()": {
        "details": "Increase phase when the number of avatar exceeds range or      time exceeds 1 week in that phase"
      },
      "renounceOwnership()": {
        "details": "Leaves the contract without owner. It will not be possible to call `onlyOwner` functions anymore. Can only be called by the current owner. NOTE: Renouncing ownership will leave the contract without an owner, thereby removing any functionality that is only available to the owner."
      },
      "rewardSurplus()": {
        "details": "need to implement in child contract."
      },
      "transferOwnership(address)": {
        "details": "Transfers ownership of the contract to a new account (`newOwner`). Can only be called by the current owner."
      }
    },
    "version": 1
  },
  "userdoc": {
    "kind": "user",
    "methods": {},
    "version": 1
  }
}