{
  "contractName": "SleepAvatar",
  "abi": [
    {
      "inputs": [
        {
          "internalType": "address",
          "name": "trustedForwarder",
          "type": "address"
        }
      ],
      "stateMutability": "nonpayable",
      "type": "constructor"
    },
    {
      "anonymous": false,
      "inputs": [
        {
          "indexed": true,
          "internalType": "address",
          "name": "owner",
          "type": "address"
        },
        {
          "indexed": true,
          "internalType": "address",
          "name": "approved",
          "type": "address"
        },
        {
          "indexed": true,
          "internalType": "uint256",
          "name": "tokenId",
          "type": "uint256"
        }
      ],
      "name": "Approval",
      "type": "event"
    },
    {
      "anonymous": false,
      "inputs": [
        {
          "indexed": true,
          "internalType": "address",
          "name": "owner",
          "type": "address"
        },
        {
          "indexed": true,
          "internalType": "address",
          "name": "operator",
          "type": "address"
        },
        {
          "indexed": false,
          "internalType": "bool",
          "name": "approved",
          "type": "bool"
        }
      ],
      "name": "ApprovalForAll",
      "type": "event"
    },
    {
      "anonymous": false,
      "inputs": [
        {
          "indexed": true,
          "internalType": "uint256",
          "name": "tokenId",
          "type": "uint256"
        },
        {
          "indexed": false,
          "internalType": "string",
          "name": "uri",
          "type": "string"
        }
      ],
      "name": "TokenURIUpdated",
      "type": "event"
    },
    {
      "anonymous": false,
      "inputs": [
        {
          "indexed": true,
          "internalType": "address",
          "name": "from",
          "type": "address"
        },
        {
          "indexed": true,
          "internalType": "address",
          "name": "to",
          "type": "address"
        },
        {
          "indexed": true,
          "internalType": "uint256",
          "name": "tokenId",
          "type": "uint256"
        }
      ],
      "name": "Transfer",
      "type": "event"
    },
    {
      "inputs": [
        {
          "internalType": "address",
          "name": "to",
          "type": "address"
        },
        {
          "internalType": "uint256",
          "name": "tokenId",
          "type": "uint256"
        }
      ],
      "name": "approve",
      "outputs": [],
      "stateMutability": "nonpayable",
      "type": "function"
    },
    {
      "inputs": [
        {
          "internalType": "address",
          "name": "owner",
          "type": "address"
        }
      ],
      "name": "balanceOf",
      "outputs": [
        {
          "internalType": "uint256",
          "name": "",
          "type": "uint256"
        }
      ],
      "stateMutability": "view",
      "type": "function"
    },
    {
      "inputs": [
        {
          "internalType": "uint256",
          "name": "tokenId",
          "type": "uint256"
        }
      ],
      "name": "burn",
      "outputs": [],
      "stateMutability": "nonpayable",
      "type": "function"
    },
    {
      "inputs": [],
      "name": "createAvatar",
      "outputs": [],
      "stateMutability": "nonpayable",
      "type": "function"
    },
    {
      "inputs": [
        {
          "internalType": "address",
          "name": "to",
          "type": "address"
        }
      ],
      "name": "createAvatarTo",
      "outputs": [],
      "stateMutability": "nonpayable",
      "type": "function"
    },
    {
      "inputs": [
        {
          "internalType": "uint256",
          "name": "tokenId",
          "type": "uint256"
        }
      ],
      "name": "getApproved",
      "outputs": [
        {
          "internalType": "address",
          "name": "",
          "type": "address"
        }
      ],
      "stateMutability": "view",
      "type": "function"
    },
    {
      "inputs": [],
      "name": "getCurrTokenId",
      "outputs": [
        {
          "internalType": "uint256",
          "name": "",
          "type": "uint256"
        }
      ],
      "stateMutability": "view",
      "type": "function"
    },
    {
      "inputs": [
        {
          "internalType": "address",
          "name": "owner",
          "type": "address"
        },
        {
          "internalType": "address",
          "name": "operator",
          "type": "address"
        }
      ],
      "name": "isApprovedForAll",
      "outputs": [
        {
          "internalType": "bool",
          "name": "",
          "type": "bool"
        }
      ],
      "stateMutability": "view",
      "type": "function"
    },
    {
      "inputs": [
        {
          "internalType": "address",
          "name": "forwarder",
          "type": "address"
        }
      ],
      "name": "isTrustedForwarder",
      "outputs": [
        {
          "internalType": "bool",
          "name": "",
          "type": "bool"
        }
      ],
      "stateMutability": "view",
      "type": "function"
    },
    {
      "inputs": [],
      "name": "name",
      "outputs": [
        {
          "internalType": "string",
          "name": "",
          "type": "string"
        }
      ],
      "stateMutability": "view",
      "type": "function"
    },
    {
      "inputs": [
        {
          "internalType": "uint256",
          "name": "tokenId",
          "type": "uint256"
        }
      ],
      "name": "ownerOf",
      "outputs": [
        {
          "internalType": "address",
          "name": "",
          "type": "address"
        }
      ],
      "stateMutability": "view",
      "type": "function"
    },
    {
      "inputs": [],
      "name": "safeMint",
      "outputs": [],
      "stateMutability": "nonpayable",
      "type": "function"
    },
    {
      "inputs": [
        {
          "internalType": "address",
          "name": "from",
          "type": "address"
        },
        {
          "internalType": "address",
          "name": "to",
          "type": "address"
        },
        {
          "internalType": "uint256",
          "name": "tokenId",
          "type": "uint256"
        }
      ],
      "name": "safeTransferFrom",
      "outputs": [],
      "stateMutability": "nonpayable",
      "type": "function"
    },
    {
      "inputs": [
        {
          "internalType": "address",
          "name": "from",
          "type": "address"
        },
        {
          "internalType": "address",
          "name": "to",
          "type": "address"
        },
        {
          "internalType": "uint256",
          "name": "tokenId",
          "type": "uint256"
        },
        {
          "internalType": "bytes",
          "name": "_data",
          "type": "bytes"
        }
      ],
      "name": "safeTransferFrom",
      "outputs": [],
      "stateMutability": "nonpayable",
      "type": "function"
    },
    {
      "inputs": [
        {
          "internalType": "address",
          "name": "operator",
          "type": "address"
        },
        {
          "internalType": "bool",
          "name": "approved",
          "type": "bool"
        }
      ],
      "name": "setApprovalForAll",
      "outputs": [],
      "stateMutability": "nonpayable",
      "type": "function"
    },
    {
      "inputs": [
        {
          "internalType": "uint256",
          "name": "tokenId",
          "type": "uint256"
        },
        {
          "internalType": "string",
          "name": "uri",
          "type": "string"
        }
      ],
      "name": "setTokenURI",
      "outputs": [],
      "stateMutability": "nonpayable",
      "type": "function"
    },
    {
      "inputs": [
        {
          "internalType": "bytes4",
          "name": "interfaceId",
          "type": "bytes4"
        }
      ],
      "name": "supportsInterface",
      "outputs": [
        {
          "internalType": "bool",
          "name": "",
          "type": "bool"
        }
      ],
      "stateMutability": "view",
      "type": "function"
    },
    {
      "inputs": [],
      "name": "symbol",
      "outputs": [
        {
          "internalType": "string",
          "name": "",
          "type": "string"
        }
      ],
      "stateMutability": "view",
      "type": "function"
    },
    {
      "inputs": [
        {
          "internalType": "uint256",
          "name": "tokenId",
          "type": "uint256"
        }
      ],
      "name": "tokenURI",
      "outputs": [
        {
          "internalType": "string",
          "name": "",
          "type": "string"
        }
      ],
      "stateMutability": "view",
      "type": "function"
    },
    {
      "inputs": [
        {
          "internalType": "address",
          "name": "from",
          "type": "address"
        },
        {
          "internalType": "address",
          "name": "to",
          "type": "address"
        },
        {
          "internalType": "uint256",
          "name": "tokenId",
          "type": "uint256"
        }
      ],
      "name": "transferFrom",
      "outputs": [],
      "stateMutability": "nonpayable",
      "type": "function"
    }
  ],
  "bytecode": "0x608060405260006008553480156200001657600080fd5b50604051620033d6380380620033d683398181016040528101906200003c9190620001f2565b6040518060400160405280601c81526020017f476f6f6420536c6565702041766174617220436f6c6c656374696f6e000000008152506040518060400160405280600381526020017f475341000000000000000000000000000000000000000000000000000000000081525082828282806000806101000a81548173ffffffffffffffffffffffffffffffffffffffff021916908373ffffffffffffffffffffffffffffffffffffffff160217905550508160019080519060200190620001059291906200012b565b5080600290805190602001906200011e9291906200012b565b50505050505050620002d1565b828054620001399062000252565b90600052602060002090601f0160209004810192826200015d5760008555620001a9565b82601f106200017857805160ff1916838001178555620001a9565b82800160010185558215620001a9579182015b82811115620001a85782518255916020019190600101906200018b565b5b509050620001b89190620001bc565b5090565b5b80821115620001d7576000816000905550600101620001bd565b5090565b600081519050620001ec81620002b7565b92915050565b6000602082840312156200020557600080fd5b60006200021584828501620001db565b91505092915050565b60006200022b8262000232565b9050919050565b600073ffffffffffffffffffffffffffffffffffffffff82169050919050565b600060028204905060018216806200026b57607f821691505b6020821081141562000282576200028162000288565b5b50919050565b7f4e487b7100000000000000000000000000000000000000000000000000000000600052602260045260246000fd5b620002c2816200021e565b8114620002ce57600080fd5b50565b6130f580620002e16000396000f3fe608060405234801561001057600080fd5b506004361061012c5760003560e01c80635e5cd13a116100ad578063a22cb46511610071578063a22cb4651461031b578063b88d4fde14610337578063c87b56dd14610353578063e985e9c514610383578063f7daec35146103b35761012c565b80635e5cd13a146102895780636352211e146102935780636871ee40146102c357806370a08231146102cd57806395d89b41146102fd5761012c565b806323b872dd116100f457806323b872dd146101e757806342842e0e1461020357806342966c681461021f578063572b6c051461023b5780635938dcd31461026b5761012c565b806301ffc9a71461013157806306fdde0314610161578063081812fc1461017f578063095ea7b3146101af578063162094c4146101cb575b600080fd5b61014b600480360381019061014691906120fc565b6103cf565b60405161015891906129e0565b60405180910390f35b6101696104b1565b60405161017691906129fb565b60405180910390f35b6101996004803603810190610194919061214e565b610543565b6040516101a69190612979565b60405180910390f35b6101c960048036038101906101c491906120c0565b6105c8565b005b6101e560048036038101906101e09190612177565b6106e0565b005b61020160048036038101906101fc9190611fba565b61073e565b005b61021d60048036038101906102189190611fba565b61079e565b005b6102396004803603810190610234919061214e565b6107be565b005b61025560048036038101906102509190611f55565b6107ca565b60405161026291906129e0565b60405180910390f35b610273610823565b6040516102809190612c5d565b60405180910390f35b61029161082d565b005b6102ad60048036038101906102a8919061214e565b61083f565b6040516102ba9190612979565b60405180910390f35b6102cb6108f1565b005b6102e760048036038101906102e29190611f55565b61090b565b6040516102f49190612c5d565b60405180910390f35b6103056109c3565b60405161031291906129fb565b60405180910390f35b61033560048036038101906103309190612084565b610a55565b005b610351600480360381019061034c9190612009565b610bd6565b005b61036d6004803603810190610368919061214e565b610c38565b60405161037a91906129fb565b60405180910390f35b61039d60048036038101906103989190611f7e565b610c4a565b6040516103aa91906129e0565b60405180910390f35b6103cd60048036038101906103c89190611f55565b610cde565b005b60007f80ac58cd000000000000000000000000000000000000000000000000000000007bffffffffffffffffffffffffffffffffffffffffffffffffffffffff1916827bffffffffffffffffffffffffffffffffffffffffffffffffffffffff1916148061049a57507f5b5e139f000000000000000000000000000000000000000000000000000000007bffffffffffffffffffffffffffffffffffffffffffffffffffffffff1916827bffffffffffffffffffffffffffffffffffffffffffffffffffffffff1916145b806104aa57506104a982610cfa565b5b9050919050565b6060600180546104c090612ebd565b80601f01602080910402602001604051908101604052809291908181526020018280546104ec90612ebd565b80156105395780601f1061050e57610100808354040283529160200191610539565b820191906000526020600020905b81548152906001019060200180831161051c57829003601f168201915b5050505050905090565b600061054e82610d64565b61058d576040517f08c379a000000000000000000000000000000000000000000000000000000000815260040161058490612b9d565b60405180910390fd5b6005600083815260200190815260200160002060009054906101000a900473ffffffffffffffffffffffffffffffffffffffff169050919050565b60006105d38261083f565b90508073ffffffffffffffffffffffffffffffffffffffff168373ffffffffffffffffffffffffffffffffffffffff161415610644576040517f08c379a000000000000000000000000000000000000000000000000000000000815260040161063b90612bfd565b60405180910390fd5b8073ffffffffffffffffffffffffffffffffffffffff16610663610dd0565b73ffffffffffffffffffffffffffffffffffffffff16148061069257506106918161068c610dd0565b610c4a565b5b6106d1576040517f08c379a00000000000000000000000000000000000000000000000000000000081526004016106c890612add565b60405180910390fd5b6106db8383610ddf565b505050565b6106f16106eb610dd0565b83610e98565b610730576040517f08c379a000000000000000000000000000000000000000000000000000000000815260040161072790612abd565b60405180910390fd5b61073a8282610f76565b5050565b61074f610749610dd0565b82610e98565b61078e576040517f08c379a000000000000000000000000000000000000000000000000000000000815260040161078590612c1d565b60405180910390fd5b610799838383610fbc565b505050565b6107b983838360405180602001604052806000815250610bd6565b505050565b6107c781611218565b50565b60008060009054906101000a900473ffffffffffffffffffffffffffffffffffffffff1673ffffffffffffffffffffffffffffffffffffffff168273ffffffffffffffffffffffffffffffffffffffff16149050919050565b6000600854905090565b61083d610838610dd0565b610cde565b565b6000806003600084815260200190815260200160002060009054906101000a900473ffffffffffffffffffffffffffffffffffffffff169050600073ffffffffffffffffffffffffffffffffffffffff168173ffffffffffffffffffffffffffffffffffffffff1614156108e8576040517f08c379a00000000000000000000000000000000000000000000000000000000081526004016108df90612b1d565b60405180910390fd5b80915050919050565b61090960405180602001604052806000815250611274565b565b60008073ffffffffffffffffffffffffffffffffffffffff168273ffffffffffffffffffffffffffffffffffffffff16141561097c576040517f08c379a000000000000000000000000000000000000000000000000000000000815260040161097390612afd565b60405180910390fd5b600460008373ffffffffffffffffffffffffffffffffffffffff1673ffffffffffffffffffffffffffffffffffffffff168152602001908152602001600020549050919050565b6060600280546109d290612ebd565b80601f01602080910402602001604051908101604052809291908181526020018280546109fe90612ebd565b8015610a4b5780601f10610a2057610100808354040283529160200191610a4b565b820191906000526020600020905b815481529060010190602001808311610a2e57829003601f168201915b5050505050905090565b610a5d610dd0565b73ffffffffffffffffffffffffffffffffffffffff168273ffffffffffffffffffffffffffffffffffffffff161415610acb576040517f08c379a0000000000000000000000000000000000000000000000000000000008152600401610ac290612a7d565b60405180910390fd5b8060066000610ad8610dd0565b73ffffffffffffffffffffffffffffffffffffffff1673ffffffffffffffffffffffffffffffffffffffff16815260200190815260200160002060008473ffffffffffffffffffffffffffffffffffffffff1673ffffffffffffffffffffffffffffffffffffffff16815260200190815260200160002060006101000a81548160ff0219169083151502179055508173ffffffffffffffffffffffffffffffffffffffff16610b85610dd0565b73ffffffffffffffffffffffffffffffffffffffff167f17307eab39ab6107e8899845ad3d59bd9653f200f220920489ca2b5937696c3183604051610bca91906129e0565b60405180910390a35050565b610be7610be1610dd0565b83610e98565b610c26576040517f08c379a0000000000000000000000000000000000000000000000000000000008152600401610c1d90612c1d565b60405180910390fd5b610c328484848461129e565b50505050565b6060610c43826112fa565b9050919050565b6000600660008473ffffffffffffffffffffffffffffffffffffffff1673ffffffffffffffffffffffffffffffffffffffff16815260200190815260200160002060008373ffffffffffffffffffffffffffffffffffffffff1673ffffffffffffffffffffffffffffffffffffffff16815260200190815260200160002060009054906101000a900460ff16905092915050565b610cf7816040518060200160405280600081525061144c565b50565b60007f01ffc9a7000000000000000000000000000000000000000000000000000000007bffffffffffffffffffffffffffffffffffffffffffffffffffffffff1916827bffffffffffffffffffffffffffffffffffffffffffffffffffffffff1916149050919050565b60008073ffffffffffffffffffffffffffffffffffffffff166003600084815260200190815260200160002060009054906101000a900473ffffffffffffffffffffffffffffffffffffffff1673ffffffffffffffffffffffffffffffffffffffff1614159050919050565b6000610dda611482565b905090565b816005600083815260200190815260200160002060006101000a81548173ffffffffffffffffffffffffffffffffffffffff021916908373ffffffffffffffffffffffffffffffffffffffff160217905550808273ffffffffffffffffffffffffffffffffffffffff16610e528361083f565b73ffffffffffffffffffffffffffffffffffffffff167f8c5be1e5ebec7d5bd14f71427d1e84f3dd0314c0f7b2291e5b200ac8c7c3b92560405160405180910390a45050565b6000610ea382610d64565b610ee2576040517f08c379a0000000000000000000000000000000000000000000000000000000008152600401610ed990612a9d565b60405180910390fd5b6000610eed8361083f565b90508073ffffffffffffffffffffffffffffffffffffffff168473ffffffffffffffffffffffffffffffffffffffff161480610f5c57508373ffffffffffffffffffffffffffffffffffffffff16610f4484610543565b73ffffffffffffffffffffffffffffffffffffffff16145b80610f6d5750610f6c8185610c4a565b5b91505092915050565b610f8082826114b4565b817f931f495b9a8e5d8e61946ea5d61e021f636cfe213a801f97589c18c152e408bd82604051610fb091906129fb565b60405180910390a25050565b8273ffffffffffffffffffffffffffffffffffffffff16610fdc8261083f565b73ffffffffffffffffffffffffffffffffffffffff1614611032576040517f08c379a000000000000000000000000000000000000000000000000000000000815260040161102990612bbd565b60405180910390fd5b600073ffffffffffffffffffffffffffffffffffffffff168273ffffffffffffffffffffffffffffffffffffffff1614156110a2576040517f08c379a000000000000000000000000000000000000000000000000000000000815260040161109990612a5d565b60405180910390fd5b6110ad838383611528565b6110b8600082610ddf565b6001600460008573ffffffffffffffffffffffffffffffffffffffff1673ffffffffffffffffffffffffffffffffffffffff16815260200190815260200160002060008282546111089190612dd3565b925050819055506001600460008473ffffffffffffffffffffffffffffffffffffffff1673ffffffffffffffffffffffffffffffffffffffff168152602001908152602001600020600082825461115f9190612d4c565b92505081905550816003600083815260200190815260200160002060006101000a81548173ffffffffffffffffffffffffffffffffffffffff021916908373ffffffffffffffffffffffffffffffffffffffff160217905550808273ffffffffffffffffffffffffffffffffffffffff168473ffffffffffffffffffffffffffffffffffffffff167fddf252ad1be2c89b69c2b068fc378daa952ba7f163c4a11628f55a4df523b3ef60405160405180910390a4505050565b611229611223610dd0565b82610e98565b611268576040517f08c379a000000000000000000000000000000000000000000000000000000000815260040161125f90612c3d565b60405180910390fd5b6112718161152d565b50565b600061127e611539565b9050611288611556565b61129a611293610dd0565b8284611570565b5050565b6112a9848484610fbc565b6112b5848484846115cb565b6112f4576040517f08c379a00000000000000000000000000000000000000000000000000000000081526004016112eb90612a1d565b60405180910390fd5b50505050565b606061130582610d64565b611344576040517f08c379a000000000000000000000000000000000000000000000000000000000815260040161133b90612b7d565b60405180910390fd5b600060076000848152602001908152602001600020805461136490612ebd565b80601f016020809104026020016040519081016040528092919081815260200182805461139090612ebd565b80156113dd5780601f106113b2576101008083540402835291602001916113dd565b820191906000526020600020905b8154815290600101906020018083116113c057829003601f168201915b5050505050905060006113ee611762565b9050600081511415611404578192505050611447565b600082511115611439578082604051602001611421929190612955565b60405160208183030381529060405292505050611447565b61144284611782565b925050505b919050565b6000611456611539565b9050611460611556565b61146b838284611570565b61147d8161147883611829565b610f76565b505050565b600061148d336107ca565b156114a157601436033560601c90506114b0565b6114a96119d6565b90506114b1565b5b90565b6114bd82610d64565b6114fc576040517f08c379a00000000000000000000000000000000000000000000000000000000081526004016114f390612b3d565b60405180910390fd5b80600760008481526020019081526020016000209080519060200190611523929190611d39565b505050565b505050565b611536816119de565b50565b60006115516001600854611a3190919063ffffffff16565b905090565b6008600081548092919061156990612eef565b9190505550565b61157a8383611a47565b61158760008484846115cb565b6115c6576040517f08c379a00000000000000000000000000000000000000000000000000000000081526004016115bd90612a1d565b60405180910390fd5b505050565b60006115ec8473ffffffffffffffffffffffffffffffffffffffff16611c15565b15611755578373ffffffffffffffffffffffffffffffffffffffff1663150b7a02611615610dd0565b8786866040518563ffffffff1660e01b81526004016116379493929190612994565b602060405180830381600087803b15801561165157600080fd5b505af192505050801561168257506040513d601f19601f8201168201806040525081019061167f9190612125565b60015b611705573d80600081146116b2576040519150601f19603f3d011682016040523d82523d6000602084013e6116b7565b606091505b506000815114156116fd576040517f08c379a00000000000000000000000000000000000000000000000000000000081526004016116f490612a1d565b60405180910390fd5b805181602001fd5b63150b7a0260e01b7bffffffffffffffffffffffffffffffffffffffffffffffffffffffff1916817bffffffffffffffffffffffffffffffffffffffffffffffffffffffff19161491505061175a565b600190505b949350505050565b60606040518060600160405280602d8152602001613093602d9139905090565b606061178d82610d64565b6117cc576040517f08c379a00000000000000000000000000000000000000000000000000000000081526004016117c390612bdd565b60405180910390fd5b60006117d6611762565b905060008151116117f65760405180602001604052806000815250611821565b8061180084611829565b604051602001611811929190612955565b6040516020818303038152906040525b915050919050565b60606000821415611871576040518060400160405280600181526020017f300000000000000000000000000000000000000000000000000000000000000081525090506119d1565b600082905060005b600082146118a357808061188c90612eef565b915050600a8261189c9190612da2565b9150611879565b60008167ffffffffffffffff8111156118e5577f4e487b7100000000000000000000000000000000000000000000000000000000600052604160045260246000fd5b6040519080825280601f01601f1916602001820160405280156119175781602001600182028036833780820191505090505b5090505b600085146119ca576001826119309190612dd3565b9150600a8561193f9190612f38565b603061194b9190612d4c565b60f81b818381518110611987577f4e487b7100000000000000000000000000000000000000000000000000000000600052603260045260246000fd5b60200101907effffffffffffffffffffffffffffffffffffffffffffffffffffffffffffff1916908160001a905350600a856119c39190612da2565b945061191b565b8093505050505b919050565b600033905090565b6119e781611c28565b6000600760008381526020019081526020016000208054611a0790612ebd565b905014611a2e57600760008281526020019081526020016000206000611a2d9190611dbf565b5b50565b60008183611a3f9190612d4c565b905092915050565b600073ffffffffffffffffffffffffffffffffffffffff168273ffffffffffffffffffffffffffffffffffffffff161415611ab7576040517f08c379a0000000000000000000000000000000000000000000000000000000008152600401611aae90612b5d565b60405180910390fd5b611ac081610d64565b15611b00576040517f08c379a0000000000000000000000000000000000000000000000000000000008152600401611af790612a3d565b60405180910390fd5b611b0c60008383611528565b6001600460008473ffffffffffffffffffffffffffffffffffffffff1673ffffffffffffffffffffffffffffffffffffffff1681526020019081526020016000206000828254611b5c9190612d4c565b92505081905550816003600083815260200190815260200160002060006101000a81548173ffffffffffffffffffffffffffffffffffffffff021916908373ffffffffffffffffffffffffffffffffffffffff160217905550808273ffffffffffffffffffffffffffffffffffffffff16600073ffffffffffffffffffffffffffffffffffffffff167fddf252ad1be2c89b69c2b068fc378daa952ba7f163c4a11628f55a4df523b3ef60405160405180910390a45050565b600080823b905060008111915050919050565b6000611c338261083f565b9050611c4181600084611528565b611c4c600083610ddf565b6001600460008373ffffffffffffffffffffffffffffffffffffffff1673ffffffffffffffffffffffffffffffffffffffff1681526020019081526020016000206000828254611c9c9190612dd3565b925050819055506003600083815260200190815260200160002060006101000a81549073ffffffffffffffffffffffffffffffffffffffff021916905581600073ffffffffffffffffffffffffffffffffffffffff168273ffffffffffffffffffffffffffffffffffffffff167fddf252ad1be2c89b69c2b068fc378daa952ba7f163c4a11628f55a4df523b3ef60405160405180910390a45050565b828054611d4590612ebd565b90600052602060002090601f016020900481019282611d675760008555611dae565b82601f10611d8057805160ff1916838001178555611dae565b82800160010185558215611dae579182015b82811115611dad578251825591602001919060010190611d92565b5b509050611dbb9190611dff565b5090565b508054611dcb90612ebd565b6000825580601f10611ddd5750611dfc565b601f016020900490600052602060002090810190611dfb9190611dff565b5b50565b5b80821115611e18576000816000905550600101611e00565b5090565b6000611e2f611e2a84612ca9565b612c78565b905082815260208101848484011115611e4757600080fd5b611e52848285612e7b565b509392505050565b6000611e6d611e6884612cd9565b612c78565b905082815260208101848484011115611e8557600080fd5b611e90848285612e7b565b509392505050565b600081359050611ea781613036565b92915050565b600081359050611ebc8161304d565b92915050565b600081359050611ed181613064565b92915050565b600081519050611ee681613064565b92915050565b600082601f830112611efd57600080fd5b8135611f0d848260208601611e1c565b91505092915050565b600082601f830112611f2757600080fd5b8135611f37848260208601611e5a565b91505092915050565b600081359050611f4f8161307b565b92915050565b600060208284031215611f6757600080fd5b6000611f7584828501611e98565b91505092915050565b60008060408385031215611f9157600080fd5b6000611f9f85828601611e98565b9250506020611fb085828601611e98565b9150509250929050565b600080600060608486031215611fcf57600080fd5b6000611fdd86828701611e98565b9350506020611fee86828701611e98565b9250506040611fff86828701611f40565b9150509250925092565b6000806000806080858703121561201f57600080fd5b600061202d87828801611e98565b945050602061203e87828801611e98565b935050604061204f87828801611f40565b925050606085013567ffffffffffffffff81111561206c57600080fd5b61207887828801611eec565b91505092959194509250565b6000806040838503121561209757600080fd5b60006120a585828601611e98565b92505060206120b685828601611ead565b9150509250929050565b600080604083850312156120d357600080fd5b60006120e185828601611e98565b92505060206120f285828601611f40565b9150509250929050565b60006020828403121561210e57600080fd5b600061211c84828501611ec2565b91505092915050565b60006020828403121561213757600080fd5b600061214584828501611ed7565b91505092915050565b60006020828403121561216057600080fd5b600061216e84828501611f40565b91505092915050565b6000806040838503121561218a57600080fd5b600061219885828601611f40565b925050602083013567ffffffffffffffff8111156121b557600080fd5b6121c185828601611f16565b9150509250929050565b6121d481612e07565b82525050565b6121e381612e19565b82525050565b60006121f482612d09565b6121fe8185612d1f565b935061220e818560208601612e8a565b61221781613025565b840191505092915050565b600061222d82612d14565b6122378185612d30565b9350612247818560208601612e8a565b61225081613025565b840191505092915050565b600061226682612d14565b6122708185612d41565b9350612280818560208601612e8a565b80840191505092915050565b6000612299603283612d30565b91507f4552433732313a207472616e7366657220746f206e6f6e20455243373231526560008301527f63656976657220696d706c656d656e74657200000000000000000000000000006020830152604082019050919050565b60006122ff601c83612d30565b91507f4552433732313a20746f6b656e20616c7265616479206d696e746564000000006000830152602082019050919050565b600061233f602483612d30565b91507f4552433732313a207472616e7366657220746f20746865207a65726f2061646460008301527f72657373000000000000000000000000000000000000000000000000000000006020830152604082019050919050565b60006123a5601983612d30565b91507f4552433732313a20617070726f766520746f2063616c6c6572000000000000006000830152602082019050919050565b60006123e5602c83612d30565b91507f4552433732313a206f70657261746f7220717565727920666f72206e6f6e657860008301527f697374656e7420746f6b656e00000000000000000000000000000000000000006020830152604082019050919050565b600061244b602483612d30565b91507f4176617461723a206e6f74206f776e6572206f72206e6f74206265206170707260008301527f6f766564000000000000000000000000000000000000000000000000000000006020830152604082019050919050565b60006124b1603883612d30565b91507f4552433732313a20617070726f76652063616c6c6572206973206e6f74206f7760008301527f6e6572206e6f7220617070726f76656420666f7220616c6c00000000000000006020830152604082019050919050565b6000612517602a83612d30565b91507f4552433732313a2062616c616e636520717565727920666f7220746865207a6560008301527f726f2061646472657373000000000000000000000000000000000000000000006020830152604082019050919050565b600061257d602983612d30565b91507f4552433732313a206f776e657220717565727920666f72206e6f6e657869737460008301527f656e7420746f6b656e00000000000000000000000000000000000000000000006020830152604082019050919050565b60006125e3602e83612d30565b91507f45524337323155524953746f726167653a2055524920736574206f66206e6f6e60008301527f6578697374656e7420746f6b656e0000000000000000000000000000000000006020830152604082019050919050565b6000612649602083612d30565b91507f4552433732313a206d696e7420746f20746865207a65726f20616464726573736000830152602082019050919050565b6000612689603183612d30565b91507f45524337323155524953746f726167653a2055524920717565727920666f722060008301527f6e6f6e6578697374656e7420746f6b656e0000000000000000000000000000006020830152604082019050919050565b60006126ef602c83612d30565b91507f4552433732313a20617070726f76656420717565727920666f72206e6f6e657860008301527f697374656e7420746f6b656e00000000000000000000000000000000000000006020830152604082019050919050565b6000612755602983612d30565b91507f4552433732313a207472616e73666572206f6620746f6b656e2074686174206960008301527f73206e6f74206f776e00000000000000000000000000000000000000000000006020830152604082019050919050565b60006127bb602f83612d30565b91507f4552433732314d657461646174613a2055524920717565727920666f72206e6f60008301527f6e6578697374656e7420746f6b656e00000000000000000000000000000000006020830152604082019050919050565b6000612821602183612d30565b91507f4552433732313a20617070726f76616c20746f2063757272656e74206f776e6560008301527f72000000000000000000000000000000000000000000000000000000000000006020830152604082019050919050565b6000612887603183612d30565b91507f4552433732313a207472616e736665722063616c6c6572206973206e6f74206f60008301527f776e6572206e6f7220617070726f7665640000000000000000000000000000006020830152604082019050919050565b60006128ed603083612d30565b91507f4552433732314275726e61626c653a2063616c6c6572206973206e6f74206f7760008301527f6e6572206e6f7220617070726f766564000000000000000000000000000000006020830152604082019050919050565b61294f81612e71565b82525050565b6000612961828561225b565b915061296d828461225b565b91508190509392505050565b600060208201905061298e60008301846121cb565b92915050565b60006080820190506129a960008301876121cb565b6129b660208301866121cb565b6129c36040830185612946565b81810360608301526129d581846121e9565b905095945050505050565b60006020820190506129f560008301846121da565b92915050565b60006020820190508181036000830152612a158184612222565b905092915050565b60006020820190508181036000830152612a368161228c565b9050919050565b60006020820190508181036000830152612a56816122f2565b9050919050565b60006020820190508181036000830152612a7681612332565b9050919050565b60006020820190508181036000830152612a9681612398565b9050919050565b60006020820190508181036000830152612ab6816123d8565b9050919050565b60006020820190508181036000830152612ad68161243e565b9050919050565b60006020820190508181036000830152612af6816124a4565b9050919050565b60006020820190508181036000830152612b168161250a565b9050919050565b60006020820190508181036000830152612b3681612570565b9050919050565b60006020820190508181036000830152612b56816125d6565b9050919050565b60006020820190508181036000830152612b768161263c565b9050919050565b60006020820190508181036000830152612b968161267c565b9050919050565b60006020820190508181036000830152612bb6816126e2565b9050919050565b60006020820190508181036000830152612bd681612748565b9050919050565b60006020820190508181036000830152612bf6816127ae565b9050919050565b60006020820190508181036000830152612c1681612814565b9050919050565b60006020820190508181036000830152612c368161287a565b9050919050565b60006020820190508181036000830152612c56816128e0565b9050919050565b6000602082019050612c726000830184612946565b92915050565b6000604051905081810181811067ffffffffffffffff82111715612c9f57612c9e612ff6565b5b8060405250919050565b600067ffffffffffffffff821115612cc457612cc3612ff6565b5b601f19601f8301169050602081019050919050565b600067ffffffffffffffff821115612cf457612cf3612ff6565b5b601f19601f8301169050602081019050919050565b600081519050919050565b600081519050919050565b600082825260208201905092915050565b600082825260208201905092915050565b600081905092915050565b6000612d5782612e71565b9150612d6283612e71565b9250827fffffffffffffffffffffffffffffffffffffffffffffffffffffffffffffffff03821115612d9757612d96612f69565b5b828201905092915050565b6000612dad82612e71565b9150612db883612e71565b925082612dc857612dc7612f98565b5b828204905092915050565b6000612dde82612e71565b9150612de983612e71565b925082821015612dfc57612dfb612f69565b5b828203905092915050565b6000612e1282612e51565b9050919050565b60008115159050919050565b60007fffffffff0000000000000000000000000000000000000000000000000000000082169050919050565b600073ffffffffffffffffffffffffffffffffffffffff82169050919050565b6000819050919050565b82818337600083830152505050565b60005b83811015612ea8578082015181840152602081019050612e8d565b83811115612eb7576000848401525b50505050565b60006002820490506001821680612ed557607f821691505b60208210811415612ee957612ee8612fc7565b5b50919050565b6000612efa82612e71565b91507fffffffffffffffffffffffffffffffffffffffffffffffffffffffffffffffff821415612f2d57612f2c612f69565b5b600182019050919050565b6000612f4382612e71565b9150612f4e83612e71565b925082612f5e57612f5d612f98565b5b828206905092915050565b7f4e487b7100000000000000000000000000000000000000000000000000000000600052601160045260246000fd5b7f4e487b7100000000000000000000000000000000000000000000000000000000600052601260045260246000fd5b7f4e487b7100000000000000000000000000000000000000000000000000000000600052602260045260246000fd5b7f4e487b7100000000000000000000000000000000000000000000000000000000600052604160045260246000fd5b6000601f19601f8301169050919050565b61303f81612e07565b811461304a57600080fd5b50565b61305681612e19565b811461306157600080fd5b50565b61306d81612e25565b811461307857600080fd5b50565b61308481612e71565b811461308f57600080fd5b5056fe68747470733a2f2f736c6565702e676f6f646174612e696f2f6d657461646174612f646174612f736c6565702fa2646970667358221220ebd7595e098b667cea4c7bf051da30b97d67c394b736fac2e3c0402d17e7ac2664736f6c63430008000033",
  "immutableReferences": {},
  "source": "// SPDX-License-Identifier: GPL3.0\npragma solidity ^0.8.0;\n\nimport \"./Avatar.sol\";\n\ncontract SleepAvatar is Avatar {\n    constructor(address trustedForwarder)\n        Avatar(\"Good Sleep Avatar Collection\", \"GSA\", trustedForwarder) {}\n\n    function _baseURI() internal view virtual override(Avatar) returns (string memory) {\n        return \"https://sleep.goodata.io/metadata/data/sleep/\";\n    }\n}",
  "sourcePath": "/Users/thestar/Development/go/src/work/goodata/good-sleep-contracts/contracts/SleepAvatar.sol",
  "compiler": {
    "name": "solc",
    "version": "0.8.0+commit.c7dfd78e.Emscripten.clang"
  },
  "schemaVersion": "3.4.1",
  "updatedAt": "2021-12-08T08:18:04.044Z",
  "devdoc": {
    "kind": "dev",
    "methods": {
      "approve(address,uint256)": {
        "details": "See {IERC721-approve}."
      },
      "balanceOf(address)": {
        "details": "See {IERC721-balanceOf}."
      },
      "getApproved(uint256)": {
        "details": "See {IERC721-getApproved}."
      },
      "isApprovedForAll(address,address)": {
        "details": "See {IERC721-isApprovedForAll}."
      },
      "name()": {
        "details": "See {IERC721Metadata-name}."
      },
      "ownerOf(uint256)": {
        "details": "See {IERC721-ownerOf}."
      },
      "safeMint()": {
        "details": "Safely mints `nextTokenId` and transfers it to `to`. Requirements: - `tokenId` must not exist. - If `to` refers to a smart contract, it must implement {IERC721Receiver-onERC721Received}, which is called upon a safe transfer. Emits a {Transfer} event."
      },
      "safeTransferFrom(address,address,uint256)": {
        "details": "See {IERC721-safeTransferFrom}."
      },
      "safeTransferFrom(address,address,uint256,bytes)": {
        "details": "See {IERC721-safeTransferFrom}."
      },
      "setApprovalForAll(address,bool)": {
        "details": "See {IERC721-setApprovalForAll}."
      },
      "supportsInterface(bytes4)": {
        "details": "See {IERC165-supportsInterface}."
      },
      "symbol()": {
        "details": "See {IERC721Metadata-symbol}."
      },
      "tokenURI(uint256)": {
        "details": "See {IERC721Metadata-tokenURI}."
      },
      "transferFrom(address,address,uint256)": {
        "details": "See {IERC721-transferFrom}."
      }
    },
    "version": 1
  },
  "userdoc": {
    "kind": "user",
    "methods": {},
    "version": 1
  }
}